..4W...........-
        0x0040:  bdef 0000 0000 0103 0307                 ..........
11:46:55.224844 IP ubuntu_server-in_1.ubuntu_local-net.1337 > ubuntu_client_1.ubuntu_local-net.54382: Flags [S.], seq 471101811, ack 4085734848, win 65160, options [mss 1460,sackOK,TS val 840111732 ecr 472759791,nop,wscale 7], length 0
        0x0000:  0242 ac10 ee03 0242 ac10 ee02 0800 4500  .B.....B......E.
        0x0010:  003c 0000 4000 4006 0694 ac10 ee02 ac10  .<..@.@.........
        0x0020:  ee04 0539 d46e 1c14 7173 f387 5dc0 a012  ...9.n..qs..]...
        0x0030:  fe88 3457 0000 0204 05b4 0402 080a 3213  ..4W..........2.
        0x0040:  1674 1c2d bdef 0103 0307                 .t.-......
11:46:55.224852 IP ubuntu_server-in_1.ubuntu_local-net.1337 > ubuntu_client_1.ubuntu_local-net.54382: Flags [S.], seq 471101811, ack 4085734848, win 65160, options [mss 1460,sackOK,TS val 840111732 ecr 472759791,nop,wscale 7], length 0
        0x0000:  0242 ac10 ee04 0242 ac10 ee03 0800 4500  .B.....B......E.
        0x0010:  003c 0000 4000 3f06 0794 ac10 ee02 ac10  .<..@.?.........
        0x0020:  ee04 0539 d46e 1c14 7173 f387 5dc0 a012  ...9.n..qs..]...
        0x0030:  fe88 3457 0000 0204 05b4 0402 080a 3213  ..4W..........2.
        0x0040:  1674 1c2d bdef 0103 0307                 .t.-......
11:46:55.224878 IP ubuntu_client_1.ubuntu_local-net.54382 > ubuntu_server-in_1.ubuntu_local-net.1337: Flags [.], ack 1, win 502, options [nop,nop,TS val 472759791 ecr 840111732], length 0
        0x0000:  0242 ac10 ee03 0242 ac10 ee04 0800 4500  .B.....B......E.
        0x0010:  0034 e910 4000 4006 1d8b ac10 ee04 ac10  .4..@.@.........
        0x0020:  ee02 d46e 0539 f387 5dc0 1c14 7174 8010  ...n.9..]...qt..
        0x0030:  01f6 344f 0000 0101 080a 1c2d bdef 3213  ..4O.......-..2.
        0x0040:  1674                                     .t
11:46:55.224891 IP ubuntu_client_1.ubuntu_local-net.54382 > ubuntu_server-in_1.ubuntu_local-net.1337: Flags [.], ack 1, win 502, options [nop,nop,TS val 472759791 ecr 840111732], length 0
        0x0000:  0242 ac10 ee02 0242 ac10 ee03 0800 4500  .B.....B......E.
        0x0010:  0034 e910 4000 3f06 1e8b ac10 ee04 ac10  .4..@.?.........
        0x0020:  ee02 d46e 0539 f387 5dc0 1c14 7174 8010  ...n.9..]...qt..
        0x0030:  01f6 344f 0000 0101 080a 1c2d bdef 3213  ..4O.......-..2.
        0x0040:  1674                                     .t
11:46:55.225683 IP ubuntu_server-in_1.ubuntu_local-net.1337 > ubuntu_client_1.ubuntu_local-net.54382: Flags [P.], seq 1:33, ack 1, win 510, options [nop,nop,TS val 840111733 ecr 472759791], length 32
        0x0000:  0242 ac10 ee03 0242 ac10 ee02 0800 4500  .B.....B......E.
        0x0010:  0054 053f 4000 4006 013d ac10 ee02 ac10  .T.?@.@..=......
        0x0020:  ee04 0539 d46e 1c14 7174 f387 5dc0 8018  ...9.n..qt..]...
        0x0030:  01fe 346f 0000 0101 080a 3213 1675 1c2d  ..4o......2..u.-
        0x0040:  bdef 596e 2b00 b349 e78d e0cc 586e 4582  ..Yn+..I....XnE.
        0x0050:  c8d7 0e60 27f7 6af0 220d a7a3 1e33 7644  ...`'.j."....3vD
        0x0060:  7cbb                                     |.
11:46:55.841026 ARP, Reply ubuntu_client_1.ubuntu_local-net is-at 02:42:ac:10:ee:03 (oui Unknown), length 28
        0x0000:  0242 ac10 ee02 0242 ac10 ee03 0806 0001  .B.....B........
        0x0010:  0800 0604 0002 0242 ac10 ee03 ac10 ee04  .......B........
        0x0020:  0242 ac10 ee02 ac10 ee02                 .B........
11:46:56.226973 IP ubuntu_client_1.ubuntu_local-net.54382 > ubuntu_server-in_1.ubuntu_local-net.1337: Flags [P.], seq 14:29, ack 33, win 502, options [nop,nop,TS val 472760793 ecr 840111733], length 15
        0x0000:  0242 ac10 ee03 0242 ac10 ee04 0800 4500  .B.....B......E.
        0x0010:  0043 e913 4000 4006 1d79 ac10 ee04 ac10  .C..@.@..y......
        0x0020:  ee02 d46e 0539 f387 5dcd 1c14 7194 8018  ...n.9..]...q...
        0x0030:  01f6 345e 0000 0101 080a 1c2d c1d9 3213  ..4^.......-..2.
        0x0040:  1675 6ed1 01ee 7615 5ffc 90da 9fb0 5cf5  .un...v._.....\.
        0x0050:  bb                                       .
11:46:56.227028 IP ubuntu_client_1.ubuntu_local-net.54382 > ubuntu_server-in_1.ubuntu_local-net.1337: Flags [P.], seq 14:29, ack 33, win 502, options [nop,nop,TS val 472760793 ecr 840111733], length 15
        0x0000:  0242 ac10 ee02 0242 ac10 ee03 0800 4500  .B.....B......E.
        0x0010:  0043 e913 4000 3f06 1e79 ac10 ee04 ac10  .C..@.?..y......
        0x0020:  ee02 d46e 0539 f387 5dcd 1c14 7194 8018  ...n.9..]...q...
        0x0030:  01f6 345e 0000 0101 080a 1c2d c1d9 3213  ..4^.......-..2.
        0x0040:  1675 6ed1 01ee 7615 5ffc 90da 9fb0 5cf5  .un...v._.....\.
        0x0050:  bb                                       .
11:46:56.227055 IP ubuntu_server-in_1.ubuntu_local-net.1337 > ubuntu_client_1.ubuntu_local-net.54382: Flags [.], ack 29, win 510, options [nop,nop,TS val 840112734 ecr 472760793], length 0
        0x0000:  0242 ac10 ee03 0242 ac10 ee02 0800 4500  .B.....B......E.
        0x0010:  0034 0541 4000 4006 015b ac10 ee02 ac10  .4.A@.@..[......
        0x0020:  ee04 0539 d46e 1c14 7194 f387 5ddc 8010  ...9.n..q...]...
        0x0030:  01fe 344f 0000 0101 080a 3213 1a5e 1c2d  ..4O......2..^.-
        0x0040:  c1d9                                     ..
11:46:56.227063 IP ubuntu_server-in_1.ubuntu_local-net.1337 > ubuntu_client_1.ubuntu_local-net.54382: Flags [.], ack 29, win 510, options [nop,nop,TS val 840112734 ecr 472760793], length 0
        0x0000:  0242 ac10 ee04 0242 ac10 ee03 0800 4500  .B.....B......E.
        0x0010:  0034 0541 4000 3f06 025b ac10 ee02 ac10  .4.A@.?..[......
        0x0020:  ee04 0539 d46e 1c14 7194 f387 5ddc 8010  ...9.n..q...]...
        0x0030:  01fe 344f 0000 0101 080a 3213 1a5e 1c2d  ..4O......2..^.-
        0x0040:  c1d9                                     ..
11:46:57.010144 ARP, Reply ubuntu_server-in_1.ubuntu_local-net is-at 02:42:ac:10:ee:03 (oui Unknown), length 28
        0x0000:  0242 ac10 ee04 0242 ac10 ee03 0806 0001  .B.....B........
        0x0010:  0800 0604 0002 0242 ac10 ee03 ac10 ee02  .......B........
        0x0020:  0242 ac10 ee04 ac10 ee04                 .B........
11:46:57.228258 IP ubuntu_client_1.ubuntu_local-net.54382 > ubuntu_server-in_1.ubuntu_local-net.1337: Flags [P.], seq 29:31, ack 33, win 502, options [nop,nop,TS val 472761794 ecr 840112734], length 2
        0x0000:  0242 ac10 ee03 0242 ac10 ee04 0800 4500  .B.....B......E.
        0x0010:  0036 e914 4000 4006 1d85 ac10 ee04 ac10  .6..@.@.........
        0x0020:  ee02 d46e 0539 f387 5ddc 1c14 7194 8018  ...n.9..]...q...
        0x0030:  01f6 3451 0000 0101 080a 1c2d c5c2 3213  ..4Q.......-..2.
        0x0040:  1a5e d51f                                .^..
11:46:57.228301 IP ubuntu_client_1.ubuntu_local-net.54382 > ubuntu_server-in_1.ubuntu_local-net.1337: Flags [P.], seq 29:31, ack 33, win 502, options [nop,nop,TS val 472761794 ecr 840112734], length 2
        0x0000:  0242 ac10 ee02 0242 ac10 ee03 0800 4500  .B.....B......E.
        0x0010:  0036 e914 4000 3f06 1e85 ac10 ee04 ac10  .6..@.?.........
        0x0020:  ee02 d46e 0539 f387 5ddc 1c14 7194 8018  ...n.9..]...q...
        0x0030:  01f6 3451 0000 0101 080a 1c2d c5c2 3213  ..4Q.......-..2.
        0x0040:  1a5e d51f                                .^..
11:46:57.228332 IP ubuntu_server-in_1.ubuntu_local-net.1337 > ubuntu_client_1.ubuntu_local-net.54382: Flags [.], ack 31, win 510, options [nop,nop,TS val 840113736 ecr 472761794], length 0
        0x0000:  0242 ac10 ee03 0242 ac10 ee02 0800 4500  .B.....B......E.
        0x0010:  0034 0542 4000 4006 015a ac10 ee02 ac10  .4.B@.@..Z......
        0x0020:  ee04 0539 d46e 1c14 7194 f387 5dde 8010  ...9.n..q...]...
        0x0030:  01fe 344f 0000 0101 080a 3213 1e48 1c2d  ..4O......2..H.-
        0x0040:  c5c2                                     ..
11:46:57.228341 IP ubuntu_server-in_1.ubuntu_local-net.1337 > ubuntu_client_1.ubuntu_local-net.54382: Flags [.], ack 31, win 510, options [nop,nop,TS val 840113736 ecr 472761794], length 0
        0x0000:  0242 ac10 ee04 0242 ac10 ee03 0800 4500  .B.....B......E.
        0x0010:  0034 0542 4000 3f06 025a ac10 ee02 ac10  .4.B@.?..Z......
        0x0020:  ee04 0539 d46e 1c14 7194 f387 5dde 8010  ...9.n..q...]...
        0x0030:  01fe 344f 0000 0101 080a 3213 1e48 1c2d  ..4O......2..H.-
        0x0040:  c5c2                                     ..
11:46:57.841217 ARP, Reply ubuntu_client_1.ubuntu_local-net is-at 02:42:ac:10:ee:03 (oui Unknown), length 28
        0x0000:  0242 ac10 ee02 0242 ac10 ee03 0806 0001  .B.....B........
        0x0010:  0800 0604 0002 0242 ac10 ee03 ac10 ee04  .......B........
        0x0020:  0242 ac10 ee02 ac10 ee02                 .B........
11:46:58.229480 IP ubuntu_client_1.ubuntu_local-net.54382 > ubuntu_server-in_1.ubuntu_local-net.1337: Flags [P.], seq 31:34, ack 33, win 502, options [nop,nop,TS val 472762796 ecr 840113736], length 3
        0x0000:  0242 ac10 ee03 0242 ac10 ee04 0800 4500  .B.....B......E.
        0x0010:  0037 e915 4000 4006 1d83 ac10 ee04 ac10  .7..@.@.........
        0x0020:  ee02 d46e 0539 f387 5dde 1c14 7194 8018  ...n.9..]...q...
        0x0030:  01f6 3452 0000 0101 080a 1c2d c9ac 3213  ..4R.......-..2.
        0x0040:  1e48 494c 13                             .HIL.
11:46:58.229527 IP ubuntu_client_1.ubuntu_local-net.54382 > ubuntu_server-in_1.ubuntu_local-net.1337: Flags [P.], seq 31:34, ack 33, win 502, options [nop,nop,TS val 472762796 ecr 840113736], length 3
        0x0000:  0242 ac10 ee02 0242 ac10 ee03 0800 4500  .B.....B......E.
        0x0010:  0037 e915 4000 3f06 1e83 ac10 ee04 ac10  .7..@.?.........
        0x0020:  ee02 d46e 0539 f387 5dde 1c14 7194 8018  ...n.9..]...q...
        0x0030:  01f6 3452 0000 0101 080a 1c2d c9ac 3213  ..4R.......-..2.
        0x0040:  1e48 494c 13                             .HIL.
11:46:58.229557 IP ubuntu_server-in_1.ubuntu_local-net.1337 > ubuntu_client_1.ubuntu_local-net.54382: Flags [.], ack 34, win 510, options [nop,nop,TS val 840114737 ecr 472762796], length 0
        0x0000:  0242 ac10 ee03 0242 ac10 ee02 0800 4500  .B.....B......E.
        0x0010:  0034 0543 4000 4006 0159 ac10 ee02 ac10  .4.C@.@..Y......
        0x0020:  ee04 0539 d46e 1c14 7194 f387 5de1 8010  ...9.n..q...]...
        0x0030:  01fe 344f 0000 0101 080a 3213 2231 1c2d  ..4O......2."1.-
        0x0040:  c9ac                                     ..
11:46:58.229567 IP ubuntu_server-in_1.ubuntu_local-net.1337 > ubuntu_client_1.ubuntu_local-net.54382: Flags [.], ack 34, win 510, options [nop,nop,TS val 840114737 ecr 472762796], length 0
        0x0000:  0242 ac10 ee04 0242 ac10 ee03 0800 4500  .B.....B......E.
        0x0010:  0034 0543 4000 3f06 0259 ac10 ee02 ac10  .4.C@.?..Y......
        0x0020:  ee04 0539 d46e 1c14 7194 f387 5de1 8010  ...9.n..q...]...
        0x0030:  01fe 344f 0000 0101 080a 3213 2231 1c2d  ..4O......2."1.-
        0x0040:  c9ac                                     ..
11:46:59.010324 ARP, Reply ubuntu_server-in_1.ubuntu_local-net is-at 02:42:ac:10:ee:03 (oui Unknown), length 28
        0x0000:  0242 ac10 ee04 0242 ac10 ee03 0806 0001  .B.....B........
        0x0010:  0800 0604 0002 0242 ac10 ee03 ac10 ee02  .......B........
        0x0020:  0242 ac10 ee04 ac10 ee04                 .B........
11:46:59.230734 IP ubuntu_client_1.ubuntu_local-net.54382 > ubuntu_server-in_1.ubuntu_local-net.1337: Flags [P.], seq 34:36, ack 33, win 502, options [nop,nop,TS val 472763797 ecr 840114737], length 2
        0x0000:  0242 ac10 ee03 0242 ac10 ee04 0800 4500  .B.....B......E.
        0x0010:  0036 e916 4000 4006 1d83 ac10 ee04 ac10  .6..@.@.........
        0x0020:  ee02 d46e 0539 f387 5de1 1c14 7194 8018  ...n.9..]...q...
        0x0030:  01f6 3451 0000 0101 080a 1c2d cd95 3213  ..4Q.......-..2.
        0x0040:  2231 bac2                                "1..
11:46:59.230780 IP ubuntu_client_1.ubuntu_local-net.54382 > ubuntu_server-in_1.ubuntu_local-net.1337: Flags [P.], seq 34:36, ack 33, win 502, options [nop,nop,TS val 472763797 ecr 840114737], length 2
        0x0000:  0242 ac10 ee02 0242 ac10 ee03 0800 4500  .B.....B......E.
        0x0010:  0036 e916 4000 3f06 1e83 ac10 ee04 ac10  .6..@.?.........
        0x0020:  ee02 d46e 0539 f387 5de1 1c14 7194 8018  ...n.9..]...q...
        0x0030:  01f6 3451 0000 0101 080a 1c2d cd95 3213  ..4Q.......-..2.
        0x0040:  2231 bac2                                "1..
11:46:59.230809 IP ubuntu_server-in_1.ubuntu_local-net.1337 > ubuntu_client_1.ubuntu_local-net.54382: Flags [.], ack 36, win 510, options [nop,nop,TS val 840115738 ecr 472763797], length 0
        0x0000:  0242 ac10 ee03 0242 ac10 ee02 0800 4500  .B.....B......E.
        0x0010:  0034 0544 4000 4006 0158 ac10 ee02 ac10  .4.D@.@..X......
        0x0020:  ee04 0539 d46e 1c14 7194 f387 5de3 8010  ...9.n..q...]...
        0x0030:  01fe 344f 0000 0101 080a 3213 261a 1c2d  ..4O......2.&..-
        0x0040:  cd95                                     ..
11:46:59.230817 IP ubuntu_server-in_1.ubuntu_local-net.1337 > ubuntu_client_1.ubuntu_local-net.54382: Flags [.], ack 36, win 510, options [nop,nop,TS val 840115738 ecr 472763797], length 0
        0x0000:  0242 ac10 ee04 0242 ac10 ee03 0800 4500  .B.....B......E.
        0x0010:  0034 0544 4000 3f06 0258 ac10 ee02 ac10  .4.D@.?..X......
        0x0020:  ee04 0539 d46e 1c14 7194 f387 5de3 8010  ...9.n..q...]...
        0x0030:  01fe 344f 0000 0101 080a 3213 261a 1c2d  ..4O......2.&..-
        0x0040:  cd95                                     ..
11:46:59.841395 ARP, Reply ubuntu_client_1.ubuntu_local-net is-at 02:42:ac:10:ee:03 (oui Unknown), length 28
        0x0000:  0242 ac10 ee02 0242 ac10 ee03 0806 0001  .B.....B........
        0x0010:  0800 0604 0002 0242 ac10 ee03 ac10 ee04  .......B........
        0x0020:  0242 ac10 ee02 ac10 ee02                 .B........
11:47:00.231961 IP ubuntu_client_1.ubuntu_local-net.54382 > ubuntu_server-in_1.ubuntu_local-net.1337: Flags [P.], seq 36:50, ack 33, win 502, options [nop,nop,TS val 472764798 ecr 840115738], length 14
        0x0000:  0242 ac10 ee03 0242 ac10 ee04 0800 4500  .B.....B......E.
        0x0010:  0042 e917 4000 4006 1d76 ac10 ee04 ac10  .B..@.@..v......
        0x0020:  ee02 d46e 0539 f387 5de3 1c14 7194 8018  ...n.9..]...q...
        0x0030:  01f6 345d 0000 0101 080a 1c2d d17e 3213  ..4].......-.~2.
        0x0040:  261a 341b 5ebe 22cd 432c 4a79 94d4 bc4a  &.4.^.".C,Jy...J
11:47:00.232007 IP ubuntu_client_1.ubuntu_local-net.54382 > ubuntu_server-in_1.ubuntu_local-net.1337: Flags [P.], seq 36:50, ack 33, win 502, options [nop,nop,TS val 472764798 ecr 840115738], length 14
        0x0000:  0242 ac10 ee02 0242 ac10 ee03 0800 4500  .B.....B......E.
        0x0010:  0042 e917 4000 3f06 1e76 ac10 ee04 ac10  .B..@.?..v......
        0x0020:  ee02 d46e 0539 f387 5de3 1c14 7194 8018  ...n.9..]...q...
        0x0030:  01f6 345d 0000 0101 080a 1c2d d17e 3213  ..4].......-.~2.
        0x0040:  261a 341b 5ebe 22cd 432c 4a79 94d4 bc4a  &.4.^.".C,Jy...J
11:47:00.232037 IP ubuntu_server-in_1.ubuntu_local-net.1337 > ubuntu_client_1.ubuntu_local-net.54382: Flags [.], ack 50, win 510, options [nop,nop,TS val 840116739 ecr 472764798], length 0
        0x0000:  0242 ac10 ee03 0242 ac10 ee02 0800 4500  .B.....B......E.
        0x0010:  0034 0545 4000 4006 0157 ac10 ee02 ac10  .4.E@.@..W......
        0x0020:  ee04 0539 d46e 1c14 7194 f387 5df1 8010  ...9.n..q...]...
        0x0030:  01fe 344f 0000 0101 080a 3213 2a03 1c2d  ..4O......2.*..-
        0x0040:  d17e                                     .~
11:47:00.232046 IP ubuntu_server-in_1.ubuntu_local-net.1337 > ubuntu_client_1.ubuntu_local-net.54382: Flags [.], ack 50, win 510, options [nop,nop,TS val 840116739 ecr 472764798], length 0
        0x0000:  0242 ac10 ee04 0242 ac10 ee03 0800 4500  .B.....B......E.
        0x0010:  0034 0545 4000 3f06 0257 ac10 ee02 ac10  .4.E@.?..W......
        0x0020:  ee04 0539 d46e 1c14 7194 f387 5df1 8010  ...9.n..q...]...
        0x0030:  01fe 344f 0000 0101 080a 3213 2a03 1c2d  ..4O......2.*..-
        0x0040:  d17e                                     .~
11:47:01.010517 ARP, Reply ubuntu_server-in_1.ubuntu_local-net is-at 02:42:ac:10:ee:03 (oui Unknown), length 28
        0x0000:  0242 ac10 ee04 0242 ac10 ee03 0806 0001  .B.....B........
        0x0010:  0800 0604 0002 0242 ac10 ee03 ac10 ee02  .......B........
        0x0020:  0242 ac10 ee04 ac10 ee04                 .B........
11:47:01.233200 IP ubuntu_client_1.ubuntu_local-net.54382 > ubuntu_server-in_1.ubuntu_local-net.1337: Flags [P.], seq 50:56, ack 33, win 502, options [nop,nop,TS val 472765799 ecr 840116739], length 6
        0x0000:  0242 ac10 ee03 0242 ac10 ee04 0800 4500  .B.....B......E.
        0x0010:  003a e918 4000 4006 1d7d ac10 ee04 ac10  .:..@.@..}......
        0x0020:  ee02 d46e 0539 f387 5df1 1c14 7194 8018  ...n.9..]...q...
        0x0030:  01f6 3455 0000 0101 080a 1c2d d567 3213  ..4U.......-.g2.
        0x0040:  2a03 3e32 17f7 e110                      *.>2....
11:47:01.233247 IP ubuntu_client_1.ubuntu_local-net.54382 > ubuntu_server-in_1.ubuntu_local-net.1337: Flags [P.], seq 50:56, ack 33, win 502, options [nop,nop,TS val 472765799 ecr 840116739], length 6
        0x0000:  0242 ac10 ee02 0242 ac10 ee03 0800 4500  .B.....B......E.
        0x0010:  003a e918 4000 3f06 1e7d ac10 ee04 ac10  .:..@.?..}......
        0x0020:  ee02 d46e 0539 f387 5df1 1c14 7194 8018  ...n.9..]...q...
        0x0030:  01f6 3455 0000 0101 080a 1c2d d567 3213  ..4U.......-.g2.
        0x0040:  2a03 3e32 17f7 e110                      *.>2....
11:47:01.233275 IP ubuntu_server-in_1.ubuntu_local-net.1337 > ubuntu_client_1.ubuntu_local-net.54382: Flags [.], ack 56, win 510, options [nop,nop,TS val 840117740 ecr 472765799], length 0
        0x0000:  0242 ac10 ee03 0242 ac10 ee02 0800 4500  .B.....B......E.
        0x0010:  0034 0546 4000 4006 0156 ac10 ee02 ac10  .4.F@.@..V......
        0x0020:  ee04 0539 d46e 1c14 7194 f387 5df7 8010  ...9.n..q...]...
        0x0030:  01fe 344f 0000 0101 080a 3213 2dec 1c2d  ..4O......2.-..-
        0x0040:  d567                                     .g
11:47:01.233284 IP ubuntu_server-in_1.ubuntu_local-net.1337 > ubuntu_client_1.ubuntu_local-net.54382: Flags [.], ack 56, win 510, options [nop,nop,TS val 840117740 ecr 472765799], length 0
        0x0000:  0242 ac10 ee04 0242 ac10 ee03 0800 4500  .B.....B......E.
        0x0010:  0034 0546 4000 3f06 0256 ac10 ee02 ac10  .4.F@.?..V......
        0x0020:  ee04 0539 d46e 1c14 7194 f387 5df7 8010  ...9.n..q...]...
        0x0030:  01fe 344f 0000 0101 080a 3213 2dec 1c2d  ..4O......2.-..-
        0x0040:  d567                                     .g
11:47:01.841596 ARP, Reply ubuntu_client_1.ubuntu_local-net is-at 02:42:ac:10:ee:03 (oui Unknown), length 28
        0x0000:  0242 ac10 ee02 0242 ac10 ee03 0806 0001  .B.....B........
        0x0010:  0800 0604 0002 0242 ac10 ee03 ac10 ee04  .......B........
        0x0020:  0242 ac10 ee02 ac10 ee02                 .B........
11:47:02.234421 IP ubuntu_client_1.ubuntu_local-net.54382 > ubuntu_server-in_1.ubuntu_local-net.1337: Flags [P.], seq 56:63, ack 33, win 502, options [nop,nop,TS val 472766801 ecr 840117740], length 7
        0x0000:  0242 ac10 ee03 0242 ac10 ee04 0800 4500  .B.....B......E.
        0x0010:  003b e919 4000 4006 1d7b ac10 ee04 ac10  .;..@.@..{......
        0x0020:  ee02 d46e 0539 f387 5df7 1c14 7194 8018  ...n.9..]...q...
        0x0030:  01f6 3456 0000 0101 080a 1c2d d951 3213  ..4V.......-.Q2.
        0x0040:  2dec 75ef bf54 557c ed                   -.u..TU|.
11:47:02.234469 IP ubuntu_client_1.ubuntu_local-net.54382 > ubuntu_server-in_1.ubuntu_local-net.1337: Flags [P.], seq 56:63, ack 33, win 502, options [nop,nop,TS val 472766801 ecr 840117740], length 7
        0x0000:  0242 ac10 ee02 0242 ac10 ee03 0800 4500  .B.....B......E.
        0x0010:  003b e919 4000 3f06 1e7b ac10 ee04 ac10  .;..@.?..{......
        0x0020:  ee02 d46e 0539 f387 5df7 1c14 7194 8018  ...n.9..]...q...
        0x0030:  01f6 3456 0000 0101 080a 1c2d d951 3213  ..4V.......-.Q2.
        0x0040:  2dec 75ef bf54 557c ed                   -.u..TU|.
11:47:02.234500 IP ubuntu_server-in_1.ubuntu_local-net.1337 > ubuntu_client_1.ubuntu_local-net.54382: Flags [.], ack 63, win 510, options [nop,nop,TS val 840118742 ecr 472766801], length 0
        0x0000:  0242 ac10 ee03 0242 ac10 ee02 0800 4500  .B.....B......E.
        0x0010:  0034 0547 4000 4006 0155 ac10 ee02 ac10  .4.G@.@..U......
        0x0020:  ee04 0539 d46e 1c14 7194 f387 5dfe 8010  ...9.n..q...]...
        0x0030:  01fe 344f 0000 0101 080a 3213 31d6 1c2d  ..4O......2.1..-
        0x0040:  d951                                     .Q
11:47:02.234509 IP ubuntu_server-in_1.ubuntu_local-net.1337 > ubuntu_client_1.ubuntu_local-net.54382: Flags [.], ack 63, win 510, options [nop,nop,TS val 840118742 ecr 472766801], length 0
        0x0000:  0242 ac10 ee04 0242 ac10 ee03 0800 4500  .B.....B......E.
        0x0010:  0034 0547 4000 3f06 0255 ac10 ee02 ac10  .4.G@.?..U......
        0x0020:  ee04 0539 d46e 1c14 7194 f387 5dfe 8010  ...9.n..q...]...
        0x0030:  01fe 344f 0000 0101 080a 3213 31d6 1c2d  ..4O......2.1..-
        0x0040:  d951                                     .Q
11:47:03.010712 ARP, Reply ubuntu_server-in_1.ubuntu_local-net is-at 02:42:ac:10:ee:03 (oui Unknown), length 28
        0x0000:  0242 ac10 ee04 0242 ac10 ee03 0806 0001  .B.....B........
        0x0010:  0800 0604 0002 0242 ac10 ee03 ac10 ee02  .......B........
        0x0020:  0242 ac10 ee04 ac10 ee04                 .B........
11:47:03.235641 IP ubuntu_client_1.ubuntu_local-net.54382 > ubuntu_server-in_1.ubuntu_local-net.1337: Flags [P.], seq 63:71, ack 33, win 502, options [nop,nop,TS val 472767802 ecr 840118742], length 8
        0x0000:  0242 ac10 ee03 0242 ac10 ee04 0800 4500  .B.....B......E.
        0x0010:  003c e91a 4000 4006 1d79 ac10 ee04 ac10  .<..@.@..y......
        0x0020:  ee02 d46e 0539 f387 5dfe 1c14 7194 8018  ...n.9..]...q...
        0x0030:  01f6 3457 0000 0101 080a 1c2d dd3a 3213  ..4W.......-.:2.
        0x0040:  31d6 4bbd 1eeb c033 fc30                 1.K....3.0
11:47:03.235685 IP ubuntu_client_1.ubuntu_local-net.54382 > ubuntu_server-in_1.ubuntu_local-net.1337: Flags [P.], seq 63:71, ack 33, win 502, options [nop,nop,TS val 472767802 ecr 840118742], length 8
        0x0000:  0242 ac10 ee02 0242 ac10 ee03 0800 4500  .B.....B......E.
        0x0010:  003c e91a 4000 3f06 1e79 ac10 ee04 ac10  .<..@.?..y......
        0x0020:  ee02 d46e 0539 f387 5dfe 1c14 7194 8018  ...n.9..]...q...
        0x0030:  01f6 3457 0000 0101 080a 1c2d dd3a 3213  ..4W.......-.:2.
        0x0040:  31d6 4bbd 1eeb c033 fc30                 1.K....3.0
11:47:03.235712 IP ubuntu_server-in_1.ubuntu_local-net.1337 > ubuntu_client_1.ubuntu_local-net.54382: Flags [.], ack 71, win 510, options [nop,nop,TS val 840119743 ecr 472767802], length 0
        0x0000:  0242 ac10 ee03 0242 ac10 ee02 0800 4500  .B.....B......E.
        0x0010:  0034 0548 4000 4006 0154 ac10 ee02 ac10  .4.H@.@..T......
        0x0020:  ee04 0539 d46e 1c14 7194 f387 5e06 8010  ...9.n..q...^...
        0x0030:  01fe 344f 0000 0101 080a 3213 35bf 1c2d  ..4O......2.5..-
        0x0040:  dd3a                                     .:
11:47:03.235720 IP ubuntu_server-in_1.ubuntu_local-net.1337 > ubuntu_client_1.ubuntu_local-net.54382: Flags [.], ack 71, win 510, options [nop,nop,TS val 840119743 ecr 472767802], length 0
        0x0000:  0242 ac10 ee04 0242 ac10 ee03 0800 4500  .B.....B......E.
        0x0010:  0034 0548 4000 3f06 0254 ac10 ee02 ac10  .4.H@.?..T......
        0x0020:  ee04 0539 d46e 1c14 7194 f387 5e06 8010  ...9.n..q...^...
        0x0030:  01fe 344f 0000 0101 080a 3213 35bf 1c2d  ..4O......2.5..-
        0x0040:  dd3a                                     .:
11:47:03.841779 ARP, Reply ubuntu_client_1.ubuntu_local-net is-at 02:42:ac:10:ee:03 (oui Unknown), length 28
        0x0000:  0242 ac10 ee02 0242 ac10 ee03 0806 0001  .B.....B........
        0x0010:  0800 0604 0002 0242 ac10 ee03 ac10 ee04  .......B........
        0x0020:  0242 ac10 ee02 ac10 ee02                 .B........
11:47:04.236867 IP ubuntu_client_1.ubuntu_local-net.54382 > ubuntu_server-in_1.ubuntu_local-net.1337: Flags [P.], seq 71:81, ack 33, win 502, options [nop,nop,TS val 472768803 ecr 840119743], length 10
        0x0000:  0242 ac10 ee03 0242 ac10 ee04 0800 4500  .B.....B......E.
        0x0010:  003e e91b 4000 4006 1d76 ac10 ee04 ac10  .>..@.@..v......
        0x0020:  ee02 d46e 0539 f387 5e06 1c14 7194 8018  ...n.9..^...q...
        0x0030:  01f6 3459 0000 0101 080a 1c2d e123 3213  ..4Y.......-.#2.
        0x0040:  35bf bffd d8b8 1f0c 9c96 f055            5..........U
11:47:04.236913 IP ubuntu_client_1.ubuntu_local-net.54382 > ubuntu_server-in_1.ubuntu_local-net.1337: Flags [P.], seq 71:81, ack 33, win 502, options [nop,nop,TS val 472768803 ecr 840119743], length 10
        0x0000:  0242 ac10 ee02 0242 ac10 ee03 0800 4500  .B.....B......E.
        0x0010:  003e e91b 4000 3f06 1e76 ac10 ee04 ac10  .>..@.?..v......
        0x0020:  ee02 d46e 0539 f387 5e06 1c14 7194 8018  ...n.9..^...q...
        0x0030:  01f6 3459 0000 0101 080a 1c2d e123 3213  ..4Y.......-.#2.
        0x0040:  35bf bffd d8b8 1f0c 9c96 f055            5..........U
11:47:04.236941 IP ubuntu_server-in_1.ubuntu_local-net.1337 > ubuntu_client_1.ubuntu_local-net.54382: Flags [.], ack 81, win 510, options [nop,nop,TS val 840120744 ecr 472768803], length 0
        0x0000:  0242 ac10 ee03 0242 ac10 ee02 0800 4500  .B.....B......E.
        0x0010:  0034 0549 4000 4006 0153 ac10 ee02 ac10  .4.I@.@..S......
        0x0020:  ee04 0539 d46e 1c14 7194 f387 5e10 8010  ...9.n..q...^...
        0x0030:  01fe 344f 0000 0101 080a 3213 39a8 1c2d  ..4O......2.9..-
        0x0040:  e123                                     .#
11:47:04.236949 IP ubuntu_server-in_1.ubuntu_local-net.1337 > ubuntu_client_1.ubuntu_local-net.54382: Flags [.], ack 81, win 510, options [nop,nop,TS val 840120744 ecr 472768803], length 0
        0x0000:  0242 ac10 ee04 0242 ac10 ee03 0800 4500  .B.....B......E.
        0x0010:  0034 0549 4000 3f06 0253 ac10 ee02 ac10  .4.I@.?..S......
        0x0020:  ee04 0539 d46e 1c14 7194 f387 5e10 8010  ...9.n..q...^...
        0x0030:  01fe 344f 0000 0101 080a 3213 39a8 1c2d  ..4O......2.9..-
        0x0040:  e123                                     .#
11:47:05.010908 ARP, Reply ubuntu_server-in_1.ubuntu_local-net is-at 02:42:ac:10:ee:03 (oui Unknown), length 28
        0x0000:  0242 ac10 ee04 0242 ac10 ee03 0806 0001  .B.....B........
        0x0010:  0800 0604 0002 0242 ac10 ee03 ac10 ee02  .......B........
        0x0020:  0242 ac10 ee04 ac10 ee04                 .B........
11:47:05.841978 ARP, Reply ubuntu_client_1.ubuntu_local-net is-at 02:42:ac:10:ee:03 (oui Unknown), length 28
        0x0000:  0242 ac10 ee02 0242 ac10 ee03 0806 0001  .B.....B........
        0x0010:  0800 0604 0002 0242 ac10 ee03 ac10 ee04  .......B........
        0x0020:  0242 ac10 ee02 ac10 ee02                 .B........
11:47:06.238360 IP ubuntu_server-in_1.ubuntu_local-net.1337 > ubuntu_client_1.ubuntu_local-net.54382: Flags [P.], seq 33:77, ack 81, win 510, options [nop,nop,TS val 840122746 ecr 472768803], length 44
        0x0000:  0242 ac10 ee03 0242 ac10 ee02 0800 4500  .B.....B......E.
        0x0010:  0060 054a 4000 4006 0126 ac10 ee02 ac10  .`.J@.@..&......
        0x0020:  ee04 0539 d46e 1c14 7194 f387 5e10 8018  ...9.n..q...^...
        0x0030:  01fe 347b 0000 0101 080a 3213 417a 1c2d  ..4{......2.Az.-
        0x0040:  e123 ea02 6bbc be0b f219 e695 ec22 a79b  .#..k........"..
        0x0050:  384f 6c43 df2d b1f7 df12 67bf 7a34 0991  8OlC.-....g.z4..
        0x0060:  0778 df09 d42d 5516 556b 3623 d5ec       .x...-U.Uk6#..
11:47:06.238416 IP ubuntu_server-in_1.ubuntu_local-net.1337 > ubuntu_client_1.ubuntu_local-net.54382: Flags [P.], seq 33:77, ack 81, win 510, options [nop,nop,TS val 840122746 ecr 472768803], length 44
        0x0000:  0242 ac10 ee04 0242 ac10 ee03 0800 4500  .B.....B......E.
        0x0010:  0060 054a 4000 3f06 0226 ac10 ee02 ac10  .`.J@.?..&......
        0x0020:  ee04 0539 d46e 1c14 7194 f387 5e10 8018  ...9.n..q...^...
        0x0030:  01fe 347b 0000 0101 080a 3213 417a 1c2d  ..4{......2.Az.-
        0x0040:  e123 ea02 6bbc be0b f219 e695 ec22 a79b  .#..k........"..
        0x0050:  384f 6c43 df2d b1f7 df12 67bf 7a34 0991  8OlC.-....g.z4..
        0x0060:  0778 df09 d42d 5516 556b 3623 d5ec       .x...-U.Uk6#..
11:47:06.238523 IP ubuntu_client_1.ubuntu_local-net.54382 > ubuntu_server-in_1.ubuntu_local-net.1337: Flags [R.], seq 81, ack 77, win 502, options [nop,nop,TS val 472770805 ecr 840122746], length 0
        0x0000:  0242 ac10 ee03 0242 ac10 ee04 0800 4500  .B.....B......E.
        0x0010:  0034 e91c 4000 4006 1d7f ac10 ee04 ac10  .4..@.@.........
        0x0020:  ee02 d46e 0539 f387 5e10 1c14 71c0 8014  ...n.9..^...q...
        0x0030:  01f6 344f 0000 0101 080a 1c2d e8f5 3213  ..4O.......-..2.
        0x0040:  417a                                     Az
11:47:06.238541 IP ubuntu_client_1.ubuntu_local-net.54382 > ubuntu_server-in_1.ubuntu_local-net.1337: Flags [R.], seq 81, ack 77, win 502, options [nop,nop,TS val 472770805 ecr 840122746], length 0
        0x0000:  0242 ac10 ee02 0242 ac10 ee03 0800 4500  .B.....B......E.
        0x0010:  0034 e91c 4000 3f06 1e7f ac10 ee04 ac10  .4..@.?.........
        0x0020:  ee02 d46e 0539 f387 5e10 1c14 71c0 8014  ...n.9..^...q...
        0x0030:  01f6 344f 0000 0101 080a 1c2d e8f5 3213  ..4O.......-..2.
        0x0040:  417a                                     Az
11:47:07.011102 ARP, Reply ubuntu_server-in_1.ubuntu_local-net is-at 02:42:ac:10:ee:03 (oui Unknown), length 28
        0x0000:  0242 ac10 ee04 0242 ac10 ee03 0806 0001  .B.....B........
        0x0010:  0800 0604 0002 0242 ac10 ee03 ac10 ee02  .......B........
        0x0020:  0242 ac10 ee04 ac10 ee04                 .B........
11:47:07.842167 ARP, Reply ubuntu_client_1.ubuntu_local-net is-at 02:42:ac:10:ee:03 (oui Unknown), length 28
        0x0000:  0242 ac10 ee02 0242 ac10 ee03 0806 0001  .B.....B........
        0x0010:  0800 0604 0002 0242 ac10 ee03 ac10 ee04  .......B........
        0x0020:  0242 ac10 ee02 ac10 ee02                 .B........
11:47:09.011300 ARP, Reply ubuntu_server-in_1.ubuntu_local-net is-at 02:42:ac:10:ee:03 (oui Unknown), length 28
        0x0000:  0242 ac10 ee04 0242 ac10 ee03 0806 0001  .B.....B........
        0x0010:  0800 0604 0002 0242 ac10 ee03 ac10 ee02  .......B........
        0x0020:  0242 ac10 ee04 ac10 ee04                 .B........
11:47:09.842361 ARP, Reply ubuntu_client_1.ubuntu_local-net is-at 02:42:ac:10:ee:03 (oui Unknown), length 28
        0x0000:  0242 ac10 ee02 0242 ac10 ee03 0806 0001  .B.....B........
        0x0010:  0800 0604 0002 0242 ac10 ee03 ac10 ee04  .......B........
        0x0020:  0242 ac10 ee02 ac10 ee02                 .B........
11:47:11.011488 ARP, Reply ubuntu_server-in_1.ubuntu_local-net is-at 02:42:ac:10:ee:03 (oui Unknown), length 28
        0x0000:  0242 ac10 ee04 0242 ac10 ee03 0806 0001  .B.....B........
        0x0010:  0800 0604 0002 0242 ac10 ee03 ac10 ee02  .......B........
        0x0020:  0242 ac10 ee04 ac10 ee04                 .B........
11:47:11.243747 IP ubuntu_client_1.ubuntu_local-net.54384 > ubuntu_server-in_1.ubuntu_local-net.1337: Flags [S], seq 406275465, win 64240, options [mss 1460,sackOK,TS val 472775810 ecr 0,nop,wscale 7], length 0
        0x0000:  0242 ac10 ee03 0242 ac10 ee04 0800 4500  .B.....B......E.
        0x0010:  003c d114 4000 4006 357f ac10 ee04 ac10  .<..@.@.5.......
        0x0020:  ee02 d470 0539 1837 4589 0000 0000 a002  ...p.9.7E.......
        0x0030:  faf0 3457 0000 0204 05b4 0402 080a 1c2d  ..4W...........-
        0x0040:  fc82 0000 0000 0103 0307                 ..........
11:47:11.243795 IP ubuntu_client_1.ubuntu_local-net.54384 > ubuntu_server-in_1.ubuntu_local-net.1337: Flags [S], seq 406275465, win 64240, options [mss 1460,sackOK,TS val 472775810 ecr 0,nop,wscale 7], length 0
        0x0000:  0242 ac10 ee02 0242 ac10 ee03 0800 4500  .B.....B......E.
        0x0010:  003c d114 4000 3f06 367f ac10 ee04 ac10  .<..@.?.6.......
        0x0020:  ee02 d470 0539 1837 4589 0000 0000 a002  ...p.9.7E.......
        0x0030:  faf0 3457 0000 0204 05b4 0402 080a 1c2d  ..4W...........-
        0x0040:  fc82 0000 0000 0103 0307                 ..........
11:47:11.243832 IP ubuntu_server-in_1.ubuntu_local-net.1337 > ubuntu_client_1.ubuntu_local-net.54384: Flags [S.], seq 390813231, ack 406275466, win 65160, options [mss 1460,sackOK,TS val 840127751 ecr 472775810,nop,wscale 7], length 0
        0x0000:  0242 ac10 ee03 0242 ac10 ee02 0800 4500  .B.....B......E.
        0x0010:  003c 0000 4000 4006 0694 ac10 ee02 ac10  .<..@.@.........
        0x0020:  ee04 0539 d470 174b 562f 1837 458a a012  ...9.p.KV/.7E...
        0x0030:  fe88 3457 0000 0204 05b4 0402 080a 3213  ..4W..........2.
        0x0040:  5507 1c2d fc82 0103 0307                 U..-......
11:47:11.243841 IP ubuntu_server-in_1.ubuntu_local-net.1337 > ubuntu_client_1.ubuntu_local-net.54384: Flags [S.], seq 390813231, ack 406275466, win 65160, options [mss 1460,sackOK,TS val 840127751 ecr 472775810,nop,wscale 7], length 0
        0x0000:  0242 ac10 ee04 0242 ac10 ee03 0800 4500  .B.....B......E.
        0x0010:  003c 0000 4000 3f06 0794 ac10 ee02 ac10  .<..@.?.........
        0x0020:  ee04 0539 d470 174b 562f 1837 458a a012  ...9.p.KV/.7E...
        0x0030:  fe88 3457 0000 0204 05b4 0402 080a 3213  ..4W..........2.
        0x0040:  5507 1c2d fc82 0103 0307                 U..-......
11:47:11.243868 IP ubuntu_client_1.ubuntu_local-net.54384 > ubuntu_server-in_1.ubuntu_local-net.1337: Flags [.], ack 1, win 502, options [nop,nop,TS val 472775810 ecr 840127751], length 0
        0x0000:  0242 ac10 ee03 0242 ac10 ee04 0800 4500  .B.....B......E.
        0x0010:  0034 d115 4000 4006 3586 ac10 ee04 ac10  .4..@.@.5.......
        0x0020:  ee02 d470 0539 1837 458a 174b 5630 8010  ...p.9.7E..KV0..
        0x0030:  01f6 344f 0000 0101 080a 1c2d fc82 3213  ..4O.......-..2.
        0x0040:  5507                                     U.
11:47:11.243886 IP ubuntu_client_1.ubuntu_local-net.54384 > ubuntu_server-in_1.ubuntu_local-net.1337: Flags [.], ack 1, win 502, options [nop,nop,TS val 472775810 ecr 840127751], length 0
        0x0000:  0242 ac10 ee02 0242 ac10 ee03 0800 4500  .B.....B......E.
        0x0010:  0034 d115 4000 3f06 3686 ac10 ee04 ac10  .4..@.?.6.......
        0x0020:  ee02 d470 0539 1837 458a 174b 5630 8010  ...p.9.7E..KV0..
        0x0030:  01f6 344f 0000 0101 080a 1c2d fc82 3213  ..4O.......-..2.
        0x0040:  5507                                     U.
11:47:11.244401 IP ubuntu_server-in_1.ubuntu_local-net.1337 > ubuntu_client_1.ubuntu_local-net.54384: Flags [P.], seq 1:33, ack 1, win 510, options [nop,nop,TS val 840127752 ecr 472775810], length 32
        0x0000:  0242 ac10 ee03 0242 ac10 ee02 0800 4500  .B.....B......E.
        0x0010:  0054 14fa 4000 4006 f181 ac10 ee02 ac10  .T..@.@.........
        0x0020:  ee04 0539 d470 174b 5630 1837 458a 8018  ...9.p.KV0.7E...
        0x0030:  01fe 346f 0000 0101 080a 3213 5508 1c2d  ..4o......2.U..-
        0x0040:  fc82 596e 2b00 b349 e78d e0cc 586e 4582  ..Yn+..I....XnE.
        0x0050:  c8d7 0e60 27f7 6af0 220d a7a3 1e33 7644  ...`'.j."....3vD
        0x0060:  7cbb                                     |.
11:47:11.244428 IP ubuntu_server-in_1.ubuntu_local-net.1337 > ubuntu_client_1.ubuntu_local-net.54384: Flags [P.], seq 1:33, ack 1, win 510, options [nop,nop,TS val 840127752 ecr 472775810], length 32
        0x0000:  0242 ac10 ee04 0242 ac10 ee03 0800 4500  .B.....B......E.
        0x0010:  0054 14fa 4000 3f06 f281 ac10 ee02 ac10  .T..@.?.........
        0x0020:  ee04 0539 d470 174b 5630 1837 458a 8018  ...9.p.KV0.7E...
        0x0030:  01fe 346f 0000 0101 080a 3213 5508 1c2d  ..4o......2.U..-
        0x0040:  fc82 596e 2b00 b349 e78d e0cc 586e 4582  ..Yn+..I....XnE.
        0x0050:  c8d7 0e60 27f7 6af0 220d a7a3 1e33 7644  ...`'.j."....3vD
        0x0060:  7cbb                                     |.
11:47:11.244458 IP ubuntu_client_1.ubuntu_local-net.54384 > ubuntu_server-in_1.ubuntu_local-net.1337: Flags [.], ack 33, win 502, options [nop,nop,TS val 472775811 ecr 840127752], length 0
        0x0000:  0242 ac10 ee03 0242 ac10 ee04 0800 4500  .B.....B......E.
        0x0010:  0034 d116 4000 4006 3585 ac10 ee04 ac10  .4..@.@.5.......
        0x0020:  ee02 d470 0539 1837 458a 174b 5650 8010  ...p.9.7E..KVP..
        0x0030:  01f6 344f 0000 0101 080a 1c2d fc83 3213  ..4O.......-..2.
        0x0040:  5508                                     U.
11:47:11.244465 IP ubuntu_client_1.ubuntu_local-net.54384 > ubuntu_server-in_1.ubuntu_local-net.1337: Flags [.], ack 33, win 502, options [nop,nop,TS val 472775811 ecr 840127752], length 0
        0x0000:  0242 ac10 ee02 0242 ac10 ee03 0800 4500  .B.....B......E.
        0x0010:  0034 d116 4000 3f06 3685 ac10 ee04 ac10  .4..@.?.6.......
        0x0020:  ee02 d470 0539 1837 458a 174b 5650 8010  ...p.9.7E..KVP..
        0x0030:  01f6 344f 0000 0101 080a 1c2d fc83 3213  ..4O.......-..2.
        0x0040:  5508                                     U.
11:47:11.244511 IP ubuntu_client_1.ubuntu_local-net.54384 > ubuntu_server-in_1.ubuntu_local-net.1337: Flags [P.], seq 1:14, ack 33, win 502, options [nop,nop,TS val 472775811 ecr 840127752], length 13
        0x0000:  0242 ac10 ee03 0242 ac10 ee04 0800 4500  .B.....B......E.
        0x0010:  0041 d117 4000 4006 3577 ac10 ee04 ac10  .A..@.@.5w......
        0x0020:  ee02 d470 0539 1837 458a 174b 5650 8018  ...p.9.7E..KVP..
        0x0030:  01f6 345c 0000 0101 080a 1c2d fc83 3213  ..4\.......-..2.
        0x0040:  5508 b75a a753 7b30 6a86 3917 33e2 e6    U..Z.S{0j.9.3..
11:47:11.244539 IP ubuntu_client_1.ubuntu_local-net.54384 > ubuntu_server-in_1.ubuntu_local-net.1337: Flags [P.], seq 1:14, ack 33, win 502, options [nop,nop,TS val 472775811 ecr 840127752], length 13
        0x0000:  0242 ac10 ee02 0242 ac10 ee03 0800 4500  .B.....B......E.
        0x0010:  0041 d117 4000 3f06 3677 ac10 ee04 ac10  .A..@.?.6w......
        0x0020:  ee02 d470 0539 1837 458a 174b 5650 8018  ...p.9.7E..KVP..
        0x0030:  01f6 345c 0000 0101 080a 1c2d fc83 3213  ..4\.......-..2.
        0x0040:  5508 b75a a753 7b30 6a86 3917 33e2 e6    U..Z.S{0j.9.3..
11:47:11.244557 IP ubuntu_server-in_1.ubuntu_local-net.1337 > ubuntu_client_1.ubuntu_local-net.54384: Flags [.], ack 14, win 510, options [nop,nop,TS val 840127752 ecr 472775811], length 0
        0x0000:  0242 ac10 ee03 0242 ac10 ee02 0800 4500  .B.....B......E.
        0x0010:  0034 14fb 4000 4006 f1a0 ac10 ee02 ac10  .4..@.@.........
        0x0020:  ee04 0539 d470 174b 5650 1837 4597 8010  ...9.p.KVP.7E...
        0x0030:  01fe 344f 0000 0101 080a 3213 5508 1c2d  ..4O......2.U..-
        0x0040:  fc83                                     ..
11:47:11.842637 ARP, Reply ubuntu_client_1.ubuntu_local-net is-at 02:42:ac:10:ee:03 (oui Unknown), length 28
        0x0000:  0242 ac10 ee02 0242 ac10 ee03 0806 0001  .B.....B........
        0x0010:  0800 0604 0002 0242 ac10 ee03 ac10 ee04  .......B........
        0x0020:  0242 ac10 ee02 ac10 ee02                 .B........
11:47:12.245682 IP ubuntu_client_1.ubuntu_local-net.54384 > ubuntu_server-in_1.ubuntu_local-net.1337: Flags [P.], seq 14:29, ack 33, win 502, options [nop,nop,TS val 472776812 ecr 840127752], length 15
        0x0000:  0242 ac10 ee03 0242 ac10 ee04 0800 4500  .B.....B......E.
        0x0010:  0043 d118 4000 4006 3574 ac10 ee04 ac10  .C..@.@.5t......
        0x0020:  ee02 d470 0539 1837 4597 174b 5650 8018  ...p.9.7E..KVP..
        0x0030:  01f6 345e 0000 0101 080a 1c2e 006c 3213  ..4^.........l2.
        0x0040:  5508 6ed1 01ee 7615 5ffc 90da 9fb0 5cf5  U.n...v._.....\.
        0x0050:  bb                                       .
11:47:12.245728 IP ubuntu_client_1.ubuntu_local-net.54384 > ubuntu_server-in_1.ubuntu_local-net.1337: Flags [P.], seq 14:29, ack 33, win 502, options [nop,nop,TS val 472776812 ecr 840127752], length 15
        0x0000:  0242 ac10 ee02 0242 ac10 ee03 0800 4500  .B.....B......E.
        0x0010:  0043 d118 4000 3f06 3674 ac10 ee04 ac10  .C..@.?.6t......
        0x0020:  ee02 d470 0539 1837 4597 174b 5650 8018  ...p.9.7E..KVP..
        0x0030:  01f6 345e 0000 0101 080a 1c2e 006c 3213  ..4^.........l2.
        0x0040:  5508 6ed1 01ee 7615 5ffc 90da 9fb0 5cf5  U.n...v._.....\.
        0x0050:  bb                                       .
11:47:12.245756 IP ubuntu_server-in_1.ubuntu_local-net.1337 > ubuntu_client_1.ubuntu_local-net.54384: Flags [.], ack 29, win 510, options [nop,nop,TS val 840128753 ecr 472776812], length 0
        0x0000:  0242 ac10 ee03 0242 ac10 ee02 0800 4500  .B.....B......E.
        0x0010:  0034 14fc 4000 4006 f19f ac10 ee02 ac10  .4..@.@.........
        0x0020:  ee04 0539 d470 174b 5650 1837 45a6 8010  ...9.p.KVP.7E...
        0x0030:  01fe 344f 0000 0101 080a 3213 58f1 1c2e  ..4O......2.X...
        0x0040:  006c                                     .l
11:47:12.245765 IP ubuntu_server-in_1.ubuntu_local-net.1337 > ubuntu_client_1.ubuntu_local-net.54384: Flags [.], ack 29, win 510, options [nop,nop,TS val 840128753 ecr 472776812], length 0
        0x0000:  0242 ac10 ee04 0242 ac10 ee03 0800 4500  .B.....B......E.
        0x0010:  0034 14fc 4000 3f06 f29f ac10 ee02 ac10  .4..@.?.........
        0x0020:  ee04 0539 d470 174b 5650 1837 45a6 8010  ...9.p.KVP.7E...
        0x0030:  01fe 344f 0000 0101 080a 3213 58f1 1c2e  ..4O......2.X...
        0x0040:  006c                                     .l
11:47:13.011681 ARP, Reply ubuntu_server-in_1.ubuntu_local-net is-at 02:42:ac:10:ee:03 (oui Unknown), length 28
        0x0000:  0242 ac10 ee04 0242 ac10 ee03 0806 0001  .B.....B........
        0x0010:  0800 0604 0002 0242 ac10 ee03 ac10 ee02  .......B........
        0x0020:  0242 ac10 ee04 ac10 ee04                 .B........
11:47:13.246897 IP ubuntu_client_1.ubuntu_local-net.54384 > ubuntu_server-in_1.ubuntu_local-net.1337: Flags [P.], seq 29:31, ack 33, win 502, options [nop,nop,TS val 472777813 ecr 840128753], length 2
        0x0000:  0242 ac10 ee03 0242 ac10 ee04 0800 4500  .B.....B......E.
        0x0010:  0036 d119 4000 4006 3580 ac10 ee04 ac10  .6..@.@.5.......
        0x0020:  ee02 d470 0539 1837 45a6 174b 5650 8018  ...p.9.7E..KVP..
        0x0030:  01f6 3451 0000 0101 080a 1c2e 0455 3213  ..4Q.........U2.
        0x0040:  58f1 d51f                                X...
11:47:13.246943 IP ubuntu_client_1.ubuntu_local-net.54384 > ubuntu_server-in_1.ubuntu_local-net.1337: Flags [P.], seq 29:31, ack 33, win 502, options [nop,nop,TS val 472777813 ecr 840128753], length 2
        0x0000:  0242 ac10 ee02 0242 ac10 ee03 0800 4500  .B.....B......E.
        0x0010:  0036 d119 4000 3f06 3680 ac10 ee04 ac10  .6..@.?.6.......
        0x0020:  ee02 d470 0539 1837 45a6 174b 5650 8018  ...p.9.7E..KVP..
        0x0030:  01f6 3451 0000 0101 080a 1c2e 0455 3213  ..4Q.........U2.
        0x0040:  58f1 d51f                                X...
11:47:13.246971 IP ubuntu_server-in_1.ubuntu_local-net.1337 > ubuntu_client_1.ubuntu_local-net.54384: Flags [.], ack 31, win 510, options [nop,nop,TS val 840129754 ecr 472777813], length 0
        0x0000:  0242 ac10 ee03 0242 ac10 ee02 0800 4500  .B.....B......E.
        0x0010:  0034 14fd 4000 4006 f19e ac10 ee02 ac10  .4..@.@.........
        0x0020:  ee04 0539 d470 174b 5650 1837 45a8 8010  ...9.p.KVP.7E...
        0x0030:  01fe 344f 0000 0101 080a 3213 5cda 1c2e  ..4O......2.\...
        0x0040:  0455                                     .U
11:47:13.246980 IP ubuntu_server-in_1.ubuntu_local-net.1337 > ubuntu_client_1.ubuntu_local-net.54384: Flags [.], ack 31, win 510, options [nop,nop,TS val 840129754 ecr 472777813], length 0
        0x0000:  0242 ac10 ee04 0242 ac10 ee03 0800 4500  .B.....B......E.
        0x0010:  0034 14fd 4000 3f06 f29e ac10 ee02 ac10  .4..@.?.........
        0x0020:  ee04 0539 d470 174b 5650 1837 45a8 8010  ...9.p.KVP.7E...
        0x0030:  01fe 344f 0000 0101 080a 3213 5cda 1c2e  ..4O......2.\...
        0x0040:  0455                                     .U
11:47:13.842812 ARP, Reply ubuntu_client_1.ubuntu_local-net is-at 02:42:ac:10:ee:03 (oui Unknown), length 28
        0x0000:  0242 ac10 ee02 0242 ac10 ee03 0806 0001  .B.....B........
        0x0010:  0800 0604 0002 0242 ac10 ee03 ac10 ee04  .......B........
        0x0020:  0242 ac10 ee02 ac10 ee02                 .B........
11:47:14.248178 IP ubuntu_client_1.ubuntu_local-net.54384 > ubuntu_server-in_1.ubuntu_local-net.1337: Flags [P.], seq 31:34, ack 33, win 502, options [nop,nop,TS val 472778814 ecr 840129754], length 3
        0x0000:  0242 ac10 ee03 0242 ac10 ee04 0800 4500  .B.....B......E.
        0x0010:  0037 d11a 4000 4006 357e ac10 ee04 ac10  .7..@.@.5~......
        0x0020:  ee02 d470 0539 1837 45a8 174b 5650 8018  ...p.9.7E..KVP..
        0x0030:  01f6 3452 0000 0101 080a 1c2e 083e 3213  ..4R.........>2.
        0x0040:  5cda 494c 13                             \.IL.
11:47:14.248221 IP ubuntu_client_1.ubuntu_local-net.54384 > ubuntu_server-in_1.ubuntu_local-net.1337: Flags [P.], seq 31:34, ack 33, win 502, options [nop,nop,TS val 472778814 ecr 840129754], length 3
        0x0000:  0242 ac10 ee02 0242 ac10 ee03 0800 4500  .B.....B......E.
        0x0010:  0037 d11a 4000 3f06 367e ac10 ee04 ac10  .7..@.?.6~......
        0x0020:  ee02 d470 0539 1837 45a8 174b 5650 8018  ...p.9.7E..KVP..
        0x0030:  01f6 3452 0000 0101 080a 1c2e 083e 3213  ..4R.........>2.
        0x0040:  5cda 494c 13                             \.IL.
11:47:14.248250 IP ubuntu_server-in_1.ubuntu_local-net.1337 > ubuntu_client_1.ubuntu_local-net.54384: Flags [.], ack 34, win 510, options [nop,nop,TS val 840130755 ecr 472778814], length 0
        0x0000:  0242 ac10 ee03 0242 ac10 ee02 0800 4500  .B.....B......E.
        0x0010:  0034 14fe 4000 4006 f19d ac10 ee02 ac10  .4..@.@.........
        0x0020:  ee04 0539 d470 174b 5650 1837 45ab 8010  ...9.p.KVP.7E...
        0x0030:  01fe 344f 0000 0101 080a 3213 60c3 1c2e  ..4O......2.`...
        0x0040:  083e                                     .>
11:47:14.248259 IP ubuntu_server-in_1.ubuntu_local-net.1337 > ubuntu_client_1.ubuntu_local-net.54384: Flags [.], ack 34, win 510, options [nop,nop,TS val 840130755 ecr 472778814], length 0
        0x0000:  0242 ac10 ee04 0242 ac10 ee03 0800 4500  .B.....B......E.
        0x0010:  0034 14fe 4000 3f06 f29d ac10 ee02 ac10  .4..@.?.........
        0x0020:  ee04 0539 d470 174b 5650 1837 45ab 8010  ...9.p.KVP.7E...
        0x0030:  01fe 344f 0000 0101 080a 3213 60c3 1c2e  ..4O......2.`...
        0x0040:  083e                                     .>
11:47:15.011913 ARP, Reply ubuntu_server-in_1.ubuntu_local-net is-at 02:42:ac:10:ee:03 (oui Unknown), length 28
        0x0000:  0242 ac10 ee04 0242 ac10 ee03 0806 0001  .B.....B........
        0x0010:  0800 0604 0002 0242 ac10 ee03 ac10 ee02  .......B........
        0x0020:  0242 ac10 ee04 ac10 ee04                 .B........
11:47:15.249392 IP ubuntu_client_1.ubuntu_local-net.54384 > ubuntu_server-in_1.ubuntu_local-net.1337: Flags [P.], seq 34:36, ack 33, win 502, options [nop,nop,TS val 472779816 ecr 840130755], length 2
        0x0000:  0242 ac10 ee03 0242 ac10 ee04 0800 4500  .B.....B......E.
        0x0010:  0036 d11b 4000 4006 357e ac10 ee04 ac10  .6..@.@.5~......
        0x0020:  ee02 d470 0539 1837 45ab 174b 5650 8018  ...p.9.7E..KVP..
        0x0030:  01f6 3451 0000 0101 080a 1c2e 0c28 3213  ..4Q.........(2.
        0x0040:  60c3 bac2                                `...
11:47:15.249448 IP ubuntu_client_1.ubuntu_local-net.54384 > ubuntu_server-in_1.ubuntu_local-net.1337: Flags [P.], seq 34:36, ack 33, win 502, options [nop,nop,TS val 472779816 ecr 840130755], length 2
        0x0000:  0242 ac10 ee02 0242 ac10 ee03 0800 4500  .B.....B......E.
        0x0010:  0036 d11b 4000 3f06 367e ac10 ee04 ac10  .6..@.?.6~......
        0x0020:  ee02 d470 0539 1837 45ab 174b 5650 8018  ...p.9.7E..KVP..
        0x0030:  01f6 3451 0000 0101 080a 1c2e 0c28 3213  ..4Q.........(2.
        0x0040:  60c3 bac2                                `...
11:47:15.249475 IP ubuntu_server-in_1.ubuntu_local-net.1337 > ubuntu_client_1.ubuntu_local-net.54384: Flags [.], ack 36, win 510, options [nop,nop,TS val 840131757 ecr 472779816], length 0
        0x0000:  0242 ac10 ee03 0242 ac10 ee02 0800 4500  .B.....B......E.
        0x0010:  0034 14ff 4000 4006 f19c ac10 ee02 ac10  .4..@.@.........
        0x0020:  ee04 0539 d470 174b 5650 1837 45ad 8010  ...9.p.KVP.7E...
        0x0030:  01fe 344f 0000 0101 080a 3213 64ad 1c2e  ..4O......2.d...
        0x0040:  0c28                                     .(
11:47:15.249484 IP ubuntu_server-in_1.ubuntu_local-net.1337 > ubuntu_client_1.ubuntu_local-net.54384: Flags [.], ack 36, win 510, options [nop,nop,TS val 840131757 ecr 472779816], length 0
        0x0000:  0242 ac10 ee04 0242 ac10 ee03 0800 4500  .B.....B......E.
        0x0010:  0034 14ff 4000 3f06 f29c ac10 ee02 ac10  .4..@.?.........
        0x0020:  ee04 0539 d470 174b 5650 1837 45ad 8010  ...9.p.KVP.7E...
        0x0030:  01fe 344f 0000 0101 080a 3213 64ad 1c2e  ..4O......2.d...
        0x0040:  0c28                                     .(
11:47:15.842986 ARP, Reply ubuntu_client_1.ubuntu_local-net is-at 02:42:ac:10:ee:03 (oui Unknown), length 28
        0x0000:  0242 ac10 ee02 0242 ac10 ee03 0806 0001  .B.....B........
        0x0010:  0800 0604 0002 0242 ac10 ee03 ac10 ee04  .......B........
        0x0020:  0242 ac10 ee02 ac10 ee02                 .B........
11:47:16.250616 IP ubuntu_client_1.ubuntu_local-net.54384 > ubuntu_server-in_1.ubuntu_local-net.1337: Flags [P.], seq 36:50, ack 33, win 502, options [nop,nop,TS val 472780817 ecr 840131757], length 14
        0x0000:  0242 ac10 ee03 0242 ac10 ee04 0800 4500  .B.....B......E.
        0x0010:  0042 d11c 4000 4006 3571 ac10 ee04 ac10  .B..@.@.5q......
        0x0020:  ee02 d470 0539 1837 45ad 174b 5650 8018  ...p.9.7E..KVP..
        0x0030:  01f6 345d 0000 0101 080a 1c2e 1011 3213  ..4]..........2.
        0x0040:  64ad 341b 5ebe 22cd 432c 4a79 94d4 bc4a  d.4.^.".C,Jy...J
11:47:16.250664 IP ubuntu_client_1.ubuntu_local-net.54384 > ubuntu_server-in_1.ubuntu_local-net.1337: Flags [P.], seq 36:50, ack 33, win 502, options [nop,nop,TS val 472780817 ecr 840131757], length 14
        0x0000:  0242 ac10 ee02 0242 ac10 ee03 0800 4500  .B.....B......E.
        0x0010:  0042 d11c 4000 3f06 3671 ac10 ee04 ac10  .B..@.?.6q......
        0x0020:  ee02 d470 0539 1837 45ad 174b 5650 8018  ...p.9.7E..KVP..
        0x0030:  01f6 345d 0000 0101 080a 1c2e 1011 3213  ..4]..........2.
        0x0040:  64ad 341b 5ebe 22cd 432c 4a79 94d4 bc4a  d.4.^.".C,Jy...J
11:47:16.250694 IP ubuntu_server-in_1.ubuntu_local-net.1337 > ubuntu_client_1.ubuntu_local-net.54384: Flags [.], ack 50, win 510, options [nop,nop,TS val 840132758 ecr 472780817], length 0
        0x0000:  0242 ac10 ee03 0242 ac10 ee02 0800 4500  .B.....B......E.
        0x0010:  0034 1500 4000 4006 f19b ac10 ee02 ac10  .4..@.@.........
        0x0020:  ee04 0539 d470 174b 5650 1837 45bb 8010  ...9.p.KVP.7E...
        0x0030:  01fe 344f 0000 0101 080a 3213 6896 1c2e  ..4O......2.h...
        0x0040:  1011                                     ..
11:47:16.250703 IP ubuntu_server-in_1.ubuntu_local-net.1337 > ubuntu_client_1.ubuntu_local-net.54384: Flags [.], ack 50, win 510, options [nop,nop,TS val 840132758 ecr 472780817], length 0
        0x0000:  0242 ac10 ee04 0242 ac10 ee03 0800 4500  .B.....B......E.
        0x0010:  0034 1500 4000 3f06 f29b ac10 ee02 ac10  .4..@.?.........
        0x0020:  ee04 0539 d470 174b 5650 1837 45bb 8010  ...9.p.KVP.7E...
        0x0030:  01fe 344f 0000 0101 080a 3213 6896 1c2e  ..4O......2.h...
        0x0040:  1011                                     ..
11:47:17.012103 ARP, Reply ubuntu_server-in_1.ubuntu_local-net is-at 02:42:ac:10:ee:03 (oui Unknown), length 28
        0x0000:  0242 ac10 ee04 0242 ac10 ee03 0806 0001  .B.....B........
        0x0010:  0800 0604 0002 0242 ac10 ee03 ac10 ee02  .......B........
        0x0020:  0242 ac10 ee04 ac10 ee04                 .B........
11:47:17.251835 IP ubuntu_client_1.ubuntu_local-net.54384 > ubuntu_server-in_1.ubuntu_local-net.1337: Flags [P.], seq 50:56, ack 33, win 502, options [nop,nop,TS val 472781818 ecr 840132758], length 6
        0x0000:  0242 ac10 ee03 0242 ac10 ee04 0800 4500  .B.....B......E.
        0x0010:  003a d11d 4000 4006 3578 ac10 ee04 ac10  .:..@.@.5x......
        0x0020:  ee02 d470 0539 1837 45bb 174b 5650 8018  ...p.9.7E..KVP..
        0x0030:  01f6 3455 0000 0101 080a 1c2e 13fa 3213  ..4U..........2.
        0x0040:  6896 3e32 17f7 e110                      h.>2....
11:47:17.251886 IP ubuntu_client_1.ubuntu_local-net.54384 > ubuntu_server-in_1.ubuntu_local-net.1337: Flags [P.], seq 50:56, ack 33, win 502, options [nop,nop,TS val 472781818 ecr 840132758], length 6
        0x0000:  0242 ac10 ee02 0242 ac10 ee03 0800 4500  .B.....B......E.
        0x0010:  003a d11d 4000 3f06 3678 ac10 ee04 ac10  .:..@.?.6x......
        0x0020:  ee02 d470 0539 1837 45bb 174b 5650 8018  ...p.9.7E..KVP..
        0x0030:  01f6 3455 0000 0101 080a 1c2e 13fa 3213  ..4U..........2.
        0x0040:  6896 3e32 17f7 e110                      h.>2....
11:47:17.251914 IP ubuntu_server-in_1.ubuntu_local-net.1337 > ubuntu_client_1.ubuntu_local-net.54384: Flags [.], ack 56, win 510, options [nop,nop,TS val 840133759 ecr 472781818], length 0
        0x0000:  0242 ac10 ee03 0242 ac10 ee02 0800 4500  .B.....B......E.
        0x0010:  0034 1501 4000 4006 f19a ac10 ee02 ac10  .4..@.@.........
        0x0020:  ee04 0539 d470 174b 5650 1837 45c1 8010  ...9.p.KVP.7E...
        0x0030:  01fe 344f 0000 0101 080a 3213 6c7f 1c2e  ..4O......2.l...
        0x0040:  13fa                                     ..
11:47:17.251922 IP ubuntu_server-in_1.ubuntu_local-net.1337 > ubuntu_client_1.ubuntu_local-net.54384: Flags [.], ack 56, win 510, options [nop,nop,TS val 840133759 ecr 472781818], length 0
        0x0000:  0242 ac10 ee04 0242 ac10 ee03 0800 4500  .B.....B......E.
        0x0010:  0034 1501 4000 3f06 f29a ac10 ee02 ac10  .4..@.?.........
        0x0020:  ee04 0539 d470 174b 5650 1837 45c1 8010  ...9.p.KVP.7E...
        0x0030:  01fe 344f 0000 0101 080a 3213 6c7f 1c2e  ..4O......2.l...
        0x0040:  13fa                                     ..
11:47:17.843155 ARP, Reply ubuntu_client_1.ubuntu_local-net is-at 02:42:ac:10:ee:03 (oui Unknown), length 28
        0x0000:  0242 ac10 ee02 0242 ac10 ee03 0806 0001  .B.....B........
        0x0010:  0800 0604 0002 0242 ac10 ee03 ac10 ee04  .......B........
        0x0020:  0242 ac10 ee02 ac10 ee02                 .B........
11:47:18.253086 IP ubuntu_client_1.ubuntu_local-net.54384 > ubuntu_server-in_1.ubuntu_local-net.1337: Flags [P.], seq 56:63, ack 33, win 502, options [nop,nop,TS val 472782819 ecr 840133759], length 7
        0x0000:  0242 ac10 ee03 0242 ac10 ee04 0800 4500  .B.....B......E.
        0x0010:  003b d11e 4000 4006 3576 ac10 ee04 ac10  .;..@.@.5v......
        0x0020:  ee02 d470 0539 1837 45c1 174b 5650 8018  ...p.9.7E..KVP..
        0x0030:  01f6 3456 0000 0101 080a 1c2e 17e3 3213  ..4V..........2.
        0x0040:  6c7f 75ef bf54 557c ed                   l.u..TU|.
11:47:18.253131 IP ubuntu_client_1.ubuntu_local-net.54384 > ubuntu_server-in_1.ubuntu_local-net.1337: Flags [P.], seq 56:63, ack 33, win 502, options [nop,nop,TS val 472782819 ecr 840133759], length 7
        0x0000:  0242 ac10 ee02 0242 ac10 ee03 0800 4500  .B.....B......E.
        0x0010:  003b d11e 4000 3f06 3676 ac10 ee04 ac10  .;..@.?.6v......
        0x0020:  ee02 d470 0539 1837 45c1 174b 5650 8018  ...p.9.7E..KVP..
        0x0030:  01f6 3456 0000 0101 080a 1c2e 17e3 3213  ..4V..........2.
        0x0040:  6c7f 75ef bf54 557c ed                   l.u..TU|.
11:47:18.253161 IP ubuntu_server-in_1.ubuntu_local-net.1337 > ubuntu_client_1.ubuntu_local-net.54384: Flags [.], ack 63, win 510, options [nop,nop,TS val 840134760 ecr 472782819], length 0
        0x0000:  0242 ac10 ee03 0242 ac10 ee02 0800 4500  .B.....B......E.
        0x0010:  0034 1502 4000 4006 f199 ac10 ee02 ac10  .4..@.@.........
        0x0020:  ee04 0539 d470 174b 5650 1837 45c8 8010  ...9.p.KVP.7E...
        0x0030:  01fe 344f 0000 0101 080a 3213 7068 1c2e  ..4O......2.ph..
        0x0040:  17e3                                     ..
11:47:18.253170 IP ubuntu_server-in_1.ubuntu_local-net.1337 > ubuntu_client_1.ubuntu_local-net.54384: Flags [.], ack 63, win 510, options [nop,nop,TS val 840134760 ecr 472782819], length 0
        0x0000:  0242 ac10 ee04 0242 ac10 ee03 0800 4500  .B.....B......E.
        0x0010:  0034 1502 4000 3f06 f299 ac10 ee02 ac10  .4..@.?.........
        0x0020:  ee04 0539 d470 174b 5650 1837 45c8 8010  ...9.p.KVP.7E...
        0x0030:  01fe 344f 0000 0101 080a 3213 7068 1c2e  ..4O......2.ph..
        0x0040:  17e3                                     ..
11:47:19.012297 ARP, Reply ubuntu_server-in_1.ubuntu_local-net is-at 02:42:ac:10:ee:03 (oui Unknown), length 28
        0x0000:  0242 ac10 ee04 0242 ac10 ee03 0806 0001  .B.....B........
        0x0010:  0800 0604 0002 0242 ac10 ee03 ac10 ee02  .......B........
        0x0020:  0242 ac10 ee04 ac10 ee04                 .B........
11:47:19.254320 IP ubuntu_client_1.ubuntu_local-net.54384 > ubuntu_server-in_1.ubuntu_local-net.1337: Flags [P.], seq 63:71, ack 33, win 502, options [nop,nop,TS val 472783820 ecr 840134760], length 8
        0x0000:  0242 ac10 ee03 0242 ac10 ee04 0800 4500  .B.....B......E.
        0x0010:  003c d11f 4000 4006 3574 ac10 ee04 ac10  .<..@.@.5t......
        0x0020:  ee02 d470 0539 1837 45c8 174b 5650 8018  ...p.9.7E..KVP..
        0x0030:  01f6 3457 0000 0101 080a 1c2e 1bcc 3213  ..4W..........2.
        0x0040:  7068 4bbd 1eeb c033 fc30                 phK....3.0
11:47:19.254365 IP ubuntu_client_1.ubuntu_local-net.54384 > ubuntu_server-in_1.ubuntu_local-net.1337: Flags [P.], seq 63:71, ack 33, win 502, options [nop,nop,TS val 472783820 ecr 840134760], length 8
        0x0000:  0242 ac10 ee02 0242 ac10 ee03 0800 4500  .B.....B......E.
        0x0010:  003c d11f 4000 3f06 3674 ac10 ee04 ac10  .<..@.?.6t......
        0x0020:  ee02 d470 0539 1837 45c8 174b 5650 8018  ...p.9.7E..KVP..
        0x0030:  01f6 3457 0000 0101 080a 1c2e 1bcc 3213  ..4W..........2.
        0x0040:  7068 4bbd 1eeb c033 fc30                 phK....3.0
11:47:19.254393 IP ubuntu_server-in_1.ubuntu_local-net.1337 > ubuntu_client_1.ubuntu_local-net.54384: Flags [.], ack 71, win 510, options [nop,nop,TS val 840135762 ecr 472783820], length 0
        0x0000:  0242 ac10 ee03 0242 ac10 ee02 0800 4500  .B.....B......E.
        0x0010:  0034 1503 4000 4006 f198 ac10 ee02 ac10  .4..@.@.........
        0x0020:  ee04 0539 d470 174b 5650 1837 45d0 8010  ...9.p.KVP.7E...
        0x0030:  01fe 344f 0000 0101 080a 3213 7452 1c2e  ..4O......2.tR..
        0x0040:  1bcc                                     ..
11:47:19.254401 IP ubuntu_server-in_1.ubuntu_local-net.1337 > ubuntu_client_1.ubuntu_local-net.54384: Flags [.], ack 71, win 510, options [nop,nop,TS val 840135762 ecr 472783820], length 0
        0x0000:  0242 ac10 ee04 0242 ac10 ee03 0800 4500  .B.....B......E.
        0x0010:  0034 1503 4000 3f06 f298 ac10 ee02 ac10  .4..@.?.........
        0x0020:  ee04 0539 d470 174b 5650 1837 45d0 8010  ...9.p.KVP.7E...
        0x0030:  01fe 344f 0000 0101 080a 3213 7452 1c2e  ..4O......2.tR..
        0x0040:  1bcc                                     ..
11:47:19.843324 ARP, Reply ubuntu_client_1.ubuntu_local-net is-at 02:42:ac:10:ee:03 (oui Unknown), length 28
        0x0000:  0242 ac10 ee02 0242 ac10 ee03 0806 0001  .B.....B........
        0x0010:  0800 0604 0002 0242 ac10 ee03 ac10 ee04  .......B........
        0x0020:  0242 ac10 ee02 ac10 ee02                 .B........
11:47:20.255539 IP ubuntu_client_1.ubuntu_local-net.54384 > ubuntu_server-in_1.ubuntu_local-net.1337: Flags [P.], seq 71:81, ack 33, win 502, options [nop,nop,TS val 472784822 ecr 840135762], length 10
        0x0000:  0242 ac10 ee03 0242 ac10 ee04 0800 4500  .B.....B......E.
        0x0010:  003e d120 4000 4006 3571 ac10 ee04 ac10  .>..@.@.5q......
        0x0020:  ee02 d470 0539 1837 45d0 174b 5650 8018  ...p.9.7E..KVP..
        0x0030:  01f6 3459 0000 0101 080a 1c2e 1fb6 3213  ..4Y..........2.
        0x0040:  7452 bffd d8b8 1f0c 9c96 f055            tR.........U
11:47:20.255583 IP ubuntu_client_1.ubuntu_local-net.54384 > ubuntu_server-in_1.ubuntu_local-net.1337: Flags [P.], seq 71:81, ack 33, win 502, options [nop,nop,TS val 472784822 ecr 840135762], length 10
        0x0000:  0242 ac10 ee02 0242 ac10 ee03 0800 4500  .B.....B......E.
        0x0010:  003e d120 4000 3f06 3671 ac10 ee04 ac10  .>..@.?.6q......
        0x0020:  ee02 d470 0539 1837 45d0 174b 5650 8018  ...p.9.7E..KVP..
        0x0030:  01f6 3459 0000 0101 080a 1c2e 1fb6 3213  ..4Y..........2.
        0x0040:  7452 bffd d8b8 1f0c 9c96 f055            tR.........U
11:47:20.255612 IP ubuntu_server-in_1.ubuntu_local-net.1337 > ubuntu_client_1.ubuntu_local-net.54384: Flags [.], ack 81, win 510, options [nop,nop,TS val 840136763 ecr 472784822], length 0
        0x0000:  0242 ac10 ee03 0242 ac10 ee02 0800 4500  .B.....B......E.
        0x0010:  0034 1504 4000 4006 f197 ac10 ee02 ac10  .4..@.@.........
        0x0020:  ee04 0539 d470 174b 5650 1837 45da 8010  ...9.p.KVP.7E...
        0x0030:  01fe 344f 0000 0101 080a 3213 783b 1c2e  ..4O......2.x;..
        0x0040:  1fb6                                     ..
11:47:20.255620 IP ubuntu_server-in_1.ubuntu_local-net.1337 > ubuntu_client_1.ubuntu_local-net.54384: Flags [.], ack 81, win 510, options [nop,nop,TS val 840136763 ecr 472784822], length 0
        0x0000:  0242 ac10 ee04 0242 ac10 ee03 0800 4500  .B.....B......E.
        0x0010:  0034 1504 4000 3f06 f297 ac10 ee02 ac10  .4..@.?.........
        0x0020:  ee04 0539 d470 174b 5650 1837 45da 8010  ...9.p.KVP.7E...
        0x0030:  01fe 344f 0000 0101 080a 3213 783b 1c2e  ..4O......2.x;..
        0x0040:  1fb6                                     ..
11:47:21.012505 ARP, Reply ubuntu_server-in_1.ubuntu_local-net is-at 02:42:ac:10:ee:03 (oui Unknown), length 28
        0x0000:  0242 ac10 ee04 0242 ac10 ee03 0806 0001  .B.....B........
        0x0010:  0800 0604 0002 0242 ac10 ee03 ac10 ee02  .......B........
        0x0020:  0242 ac10 ee04 ac10 ee04                 .B........
11:47:21.843911 ARP, Reply ubuntu_client_1.ubuntu_local-net is-at 02:42:ac:10:ee:03 (oui Unknown), length 28
        0x0000:  0242 ac10 ee02 0242 ac10 ee03 0806 0001  .B.....B........
        0x0010:  0800 0604 0002 0242 ac10 ee03 ac10 ee04  .......B........
        0x0020:  0242 ac10 ee02 ac10 ee02                 .B........
11:47:22.256806 IP ubuntu_server-in_1.ubuntu_local-net.1337 > ubuntu_client_1.ubuntu_local-net.54384: Flags [P.], seq 33:77, ack 81, win 510, options [nop,nop,TS val 840138764 ecr 472784822], length 44
        0x0000:  0242 ac10 ee03 0242 ac10 ee02 0800 4500  .B.....B......E.
        0x0010:  0060 1505 4000 4006 f16a ac10 ee02 ac10  .`..@.@..j......
        0x0020:  ee04 0539 d470 174b 5650 1837 45da 8018  ...9.p.KVP.7E...
        0x0030:  01fe 347b 0000 0101 080a 3213 800c 1c2e  ..4{......2.....
        0x0040:  1fb6 ea02 6bbc be0b f219 e695 ec22 a79b  ....k........"..
        0x0050:  384f 6c43 df2d b1f7 df12 67bf 7a34 0991  8OlC.-....g.z4..
        0x0060:  0778 df09 d42d 5516 556b 3623 d5ec       .x...-U.Uk6#..
11:47:22.256871 IP ubuntu_server-in_1.ubuntu_local-net.1337 > ubuntu_client_1.ubuntu_local-net.54384: Flags [P.], seq 33:77, ack 81, win 510, options [nop,nop,TS val 840138764 ecr 472784822], length 44
        0x0000:  0242 ac10 ee04 0242 ac10 ee03 0800 4500  .B.....B......E.
        0x0010:  0060 1505 4000 3f06 f26a ac10 ee02 ac10  .`..@.?..j......
        0x0020:  ee04 0539 d470 174b 5650 1837 45da 8018  ...9.p.KVP.7E...
        0x0030:  01fe 347b 0000 0101 080a 3213 800c 1c2e  ..4{......2.....
        0x0040:  1fb6 ea02 6bbc be0b f219 e695 ec22 a79b  ....k........"..
        0x0050:  384f 6c43 df2d b1f7 df12 67bf 7a34 0991  8OlC.-....g.z4..
        0x0060:  0778 df09 d42d 5516 556b 3623 d5ec       .x...-U.Uk6#..
11:47:22.256983 IP ubuntu_client_1.ubuntu_local-net.54384 > ubuntu_server-in_1.ubuntu_local-net.1337: Flags [R.], seq 81, ack 77, win 502, options [nop,nop,TS val 472786823 ecr 840138764], length 0
        0x0000:  0242 ac10 ee03 0242 ac10 ee04 0800 4500  .B.....B......E.
        0x0010:  0034 d121 4000 4006 357a ac10 ee04 ac10  .4.!@.@.5z......
        0x0020:  ee02 d470 0539 1837 45da 174b 567c 8014  ...p.9.7E..KV|..
        0x0030:  01f6 344f 0000 0101 080a 1c2e 2787 3213  ..4O........'.2.
        0x0040:  800c                                     ..
11:47:22.256999 IP ubuntu_client_1.ubuntu_local-net.54384 > ubuntu_server-in_1.ubuntu_local-net.1337: Flags [R.], seq 81, ack 77, win 502, options [nop,nop,TS val 472786823 ecr 840138764], length 0
        0x0000:  0242 ac10 ee02 0242 ac10 ee03 0800 4500  .B.....B......E.
        0x0010:  0034 d121 4000 3f06 367a ac10 ee04 ac10  .4.!@.?.6z......
        0x0020:  ee02 d470 0539 1837 45da 174b 567c 8014  ...p.9.7E..KV|..
        0x0030:  01f6 344f 0000 0101 080a 1c2e 2787 3213  ..4O........'.2.
        0x0040:  800c                                     ..
11:47:23.012703 ARP, Reply ubuntu_server-in_1.ubuntu_local-net is-at 02:42:ac:10:ee:03 (oui Unknown), length 28
        0x0000:  0242 ac10 ee04 0242 ac10 ee03 0806 0001  .B.....B........
        0x0010:  0800 0604 0002 0242 ac10 ee03 ac10 ee02  .......B........
        0x0020:  0242 ac10 ee04 ac10 ee04                 .B........
11:47:23.844073 ARP, Reply ubuntu_client_1.ubuntu_local-net is-at 02:42:ac:10:ee:03 (oui Unknown), length 28
        0x0000:  0242 ac10 ee02 0242 ac10 ee03 0806 0001  .B.....B........
        0x0010:  0800 0604 0002 0242 ac10 ee03 ac10 ee04  .......B........
        0x0020:  0242 ac10 ee02 ac10 ee02                 .B........
11:47:25.012901 ARP, Reply ubuntu_server-in_1.ubuntu_local-net is-at 02:42:ac:10:ee:03 (oui Unknown), length 28
        0x0000:  0242 ac10 ee04 0242 ac10 ee03 0806 0001  .B.....B........
        0x0010:  0800 0604 0002 0242 ac10 ee03 ac10 ee02  .......B........
        0x0020:  0242 ac10 ee04 ac10 ee04                 .B........
11:47:25.844248 ARP, Reply ubuntu_client_1.ubuntu_local-net is-at 02:42:ac:10:ee:03 (oui Unknown), length 28
        0x0000:  0242 ac10 ee02 0242 ac10 ee03 0806 0001  .B.....B........
        0x0010:  0800 0604 0002 0242 ac10 ee03 ac10 ee04  .......B........
        0x0020:  0242 ac10 ee02 ac10 ee02                 .B........
11:47:27.013162 ARP, Reply ubuntu_server-in_1.ubuntu_local-net is-at 02:42:ac:10:ee:03 (oui Unknown), length 28
        0x0000:  0242 ac10 ee04 0242 ac10 ee03 0806 0001  .B.....B........
        0x0010:  0800 0604 0002 0242 ac10 ee03 ac10 ee02  .......B........
        0x0020:  0242 ac10 ee04 ac10 ee04                 .B........
11:47:27.262274 IP ubuntu_client_1.ubuntu_local-net.54386 > ubuntu_server-in_1.ubuntu_local-net.1337: Flags [S], seq 1339991979, win 64240, options [mss 1460,sackOK,TS val 472791828 ecr 0,nop,wscale 7], length 0
        0x0000:  0242 ac10 ee03 0242 ac10 ee04 0800 4500  .B.....B......E.
        0x0010:  003c e6c4 4000 4006 1fcf ac10 ee04 ac10  .<..@.@.........
        0x0020:  ee02 d472 0539 4fde a7ab 0000 0000 a002  ...r.9O.........
        0x0030:  faf0 3457 0000 0204 05b4 0402 080a 1c2e  ..4W............
        0x0040:  3b14 0000 0000 0103 0307                 ;.........
11:47:27.262331 IP ubuntu_client_1.ubuntu_local-net.54386 > ubuntu_server-in_1.ubuntu_local-net.1337: Flags [S], seq 1339991979, win 64240, options [mss 1460,sackOK,TS val 472791828 ecr 0,nop,wscale 7], length 0
        0x0000:  0242 ac10 ee02 0242 ac10 ee03 0800 4500  .B.....B......E.
        0x0010:  003c e6c4 4000 3f06 20cf ac10 ee04 ac10  .<..@.?.........
        0x0020:  ee02 d472 0539 4fde a7ab 0000 0000 a002  ...r.9O.........
        0x0030:  faf0 3457 0000 0204 05b4 0402 080a 1c2e  ..4W............
        0x0040:  3b14 0000 0000 0103 0307                 ;.........
11:47:27.262370 IP ubuntu_server-in_1.ubuntu_local-net.1337 > ubuntu_client_1.ubuntu_local-net.54386: Flags [S.], seq 289839032, ack 1339991980, win 65160, options [mss 1460,sackOK,TS val 840143770 ecr 472791828,nop,wscale 7], length 0
        0x0000:  0242 ac10 ee03 0242 ac10 ee02 0800 4500  .B.....B......E.
        0x0010:  003c 0000 4000 4006 0694 ac10 ee02 ac10  .<..@.@.........
        0x0020:  ee04 0539 d472 1146 97b8 4fde a7ac a012  ...9.r.F..O.....
        0x0030:  fe88 3457 0000 0204 05b4 0402 080a 3213  ..4W..........2.
        0x0040:  939a 1c2e 3b14 0103 0307                 ....;.....
11:47:27.262379 IP ubuntu_server-in_1.ubuntu_local-net.1337 > ubuntu_client_1.ubuntu_local-net.54386: Flags [S.], seq 289839032, ack 1339991980, win 65160, options [mss 1460,sackOK,TS val 840143770 ecr 472791828,nop,wscale 7], length 0
        0x0000:  0242 ac10 ee04 0242 ac10 ee03 0800 4500  .B.....B......E.
        0x0010:  003c 0000 4000 3f06 0794 ac10 ee02 ac10  .<..@.?.........
        0x0020:  ee04 0539 d472 1146 97b8 4fde a7ac a012  ...9.r.F..O.....
        0x0030:  fe88 3457 0000 0204 05b4 0402 080a 3213  ..4W..........2.
        0x0040:  939a 1c2e 3b14 0103 0307                 ....;.....
11:47:27.262408 IP ubuntu_client_1.ubuntu_local-net.54386 > ubuntu_server-in_1.ubuntu_local-net.1337: Flags [.], ack 1, win 502, options [nop,nop,TS val 472791829 ecr 840143770], length 0
        0x0000:  0242 ac10 ee03 0242 ac10 ee04 0800 4500  .B.....B......E.
        0x0010:  0034 e6c5 4000 4006 1fd6 ac10 ee04 ac10  .4..@.@.........
        0x0020:  ee02 d472 0539 4fde a7ac 1146 97b9 8010  ...r.9O....F....
        0x0030:  01f6 344f 0000 0101 080a 1c2e 3b15 3213  ..4O........;.2.
        0x0040:  939a                                     ..
11:47:27.262419 IP ubuntu_client_1.ubuntu_local-net.54386 > ubuntu_server-in_1.ubuntu_local-net.1337: Flags [.], ack 1, win 502, options [nop,nop,TS val 472791829 ecr 840143770], length 0
        0x0000:  0242 ac10 ee02 0242 ac10 ee03 0800 4500  .B.....B......E.
        0x0010:  0034 e6c5 4000 3f06 20d6 ac10 ee04 ac10  .4..@.?.........
        0x0020:  ee02 d472 0539 4fde a7ac 1146 97b9 8010  ...r.9O....F....
        0x0030:  01f6 344f 0000 0101 080a 1c2e 3b15 3213  ..4O........;.2.
        0x0040:  939a                                     ..
11:47:27.262986 IP ubuntu_server-in_1.ubuntu_local-net.1337 > ubuntu_client_1.ubuntu_local-net.54386: Flags [P.], seq 1:33, ack 1, win 510, options [nop,nop,TS val 840143770 ecr 472791829], length 32
        0x0000:  0242 ac10 ee03 0242 ac10 ee02 0800 4500  .B.....B......E.
        0x0010:  0054 e1f4 4000 4006 2487 ac10 ee02 ac10  .T..@.@.$.......
        0x0020:  ee04 0539 d472 1146 97b9 4fde a7ac 8018  ...9.r.F..O.....
        0x0030:  01fe 346f 0000 0101 080a 3213 939a 1c2e  ..4o......2.....
        0x0040:  3b15 596e 2b00 b349 e78d e0cc 586e 4582  ;.Yn+..I....XnE.
        0x0050:  c8d7 0e60 27f7 6af0 220d a7a3 1e33 7644  ...`'.j."....3vD
        0x0060:  7cbb                                     |.
11:47:27.844429 ARP, Reply ubuntu_client_1.ubuntu_local-net is-at 02:42:ac:10:ee:03 (oui Unknown), length 28
        0x0000:  0242 ac10 ee02 0242 ac10 ee03 0806 0001  .B.....B........
        0x0010:  0800 0604 0002 0242 ac10 ee03 ac10 ee04  .......B........
        0x0020:  0242 ac10 ee02 ac10 ee02                 .B........
11:47:28.264164 IP ubuntu_client_1.ubuntu_local-net.54386 > ubuntu_server-in_1.ubuntu_local-net.1337: Flags [P.], seq 14:29, ack 33, win 502, options [nop,nop,TS val 472792830 ecr 840143770], length 15
        0x0000:  0242 ac10 ee03 0242 ac10 ee04 0800 4500  .B.....B......E.
        0x0010:  0043 e6c8 4000 4006 1fc4 ac10 ee04 ac10  .C..@.@.........
        0x0020:  ee02 d472 0539 4fde a7b9 1146 97d9 8018  ...r.9O....F....
        0x0030:  01f6 345e 0000 0101 080a 1c2e 3efe 3213  ..4^........>.2.
        0x0040:  939a 6ed1 01ee 7615 5ffc 90da 9fb0 5cf5  ..n...v._.....\.
        0x0050:  bb                                       .
11:47:28.264210 IP ubuntu_client_1.ubuntu_local-net.54386 > ubuntu_server-in_1.ubuntu_local-net.1337: Flags [P.], seq 14:29, ack 33, win 502, options [nop,nop,TS val 472792830 ecr 840143770], length 15
        0x0000:  0242 ac10 ee02 0242 ac10 ee03 0800 4500  .B.....B......E.
        0x0010:  0043 e6c8 4000 3f06 20c4 ac10 ee04 ac10  .C..@.?.........
        0x0020:  ee02 d472 0539 4fde a7b9 1146 97d9 8018  ...r.9O....F....
        0x0030:  01f6 345e 0000 0101 080a 1c2e 3efe 3213  ..4^........>.2.
        0x0040:  939a 6ed1 01ee 7615 5ffc 90da 9fb0 5cf5  ..n...v._.....\.
        0x0050:  bb                                       .
11:47:28.264238 IP ubuntu_server-in_1.ubuntu_local-net.1337 > ubuntu_client_1.ubuntu_local-net.54386: Flags [.], ack 29, win 510, options [nop,nop,TS val 840144771 ecr 472792830], length 0
        0x0000:  0242 ac10 ee03 0242 ac10 ee02 0800 4500  .B.....B......E.
        0x0010:  0034 e1f6 4000 4006 24a5 ac10 ee02 ac10  .4..@.@.$.......
        0x0020:  ee04 0539 d472 1146 97d9 4fde a7c8 8010  ...9.r.F..O.....
        0x0030:  01fe 344f 0000 0101 080a 3213 9783 1c2e  ..4O......2.....
        0x0040:  3efe                                     >.
11:47:28.264251 IP ubuntu_server-in_1.ubuntu_local-net.1337 > ubuntu_client_1.ubuntu_local-net.54386: Flags [.], ack 29, win 510, options [nop,nop,TS val 840144771 ecr 472792830], length 0
        0x0000:  0242 ac10 ee04 0242 ac10 ee03 0800 4500  .B.....B......E.
        0x0010:  0034 e1f6 4000 3f06 25a5 ac10 ee02 ac10  .4..@.?.%.......
        0x0020:  ee04 0539 d472 1146 97d9 4fde a7c8 8010  ...9.r.F..O.....
        0x0030:  01fe 344f 0000 0101 080a 3213 9783 1c2e  ..4O......2.....
        0x0040:  3efe                                     >.
11:47:29.013354 ARP, Reply ubuntu_server-in_1.ubuntu_local-net is-at 02:42:ac:10:ee:03 (oui Unknown), length 28
        0x0000:  0242 ac10 ee04 0242 ac10 ee03 0806 0001  .B.....B........
        0x0010:  0800 0604 0002 0242 ac10 ee03 ac10 ee02  .......B........
        0x0020:  0242 ac10 ee04 ac10 ee04                 .B........
11:47:29.265394 IP ubuntu_client_1.ubuntu_local-net.54386 > ubuntu_server-in_1.ubuntu_local-net.1337: Flags [P.], seq 29:31, ack 33, win 502, options [nop,nop,TS val 472793832 ecr 840144771], length 2
        0x0000:  0242 ac10 ee03 0242 ac10 ee04 0800 4500  .B.....B......E.
        0x0010:  0036 e6c9 4000 4006 1fd0 ac10 ee04 ac10  .6..@.@.........
        0x0020:  ee02 d472 0539 4fde a7c8 1146 97d9 8018  ...r.9O....F....
        0x0030:  01f6 3451 0000 0101 080a 1c2e 42e8 3213  ..4Q........B.2.
        0x0040:  9783 d51f                                ....
11:47:29.265443 IP ubuntu_client_1.ubuntu_local-net.54386 > ubuntu_server-in_1.ubuntu_local-net.1337: Flags [P.], seq 29:31, ack 33, win 502, options [nop,nop,TS val 472793832 ecr 840144771], length 2
        0x0000:  0242 ac10 ee02 0242 ac10 ee03 0800 4500  .B.....B......E.
        0x0010:  0036 e6c9 4000 3f06 20d0 ac10 ee04 ac10  .6..@.?.........
        0x0020:  ee02 d472 0539 4fde a7c8 1146 97d9 8018  ...r.9O....F....
        0x0030:  01f6 3451 0000 0101 080a 1c2e 42e8 3213  ..4Q........B.2.
        0x0040:  9783 d51f                                ....
11:47:29.265473 IP ubuntu_server-in_1.ubuntu_local-net.1337 > ubuntu_client_1.ubuntu_local-net.54386: Flags [.], ack 31, win 510, options [nop,nop,TS val 840145773 ecr 472793832], length 0
        0x0000:  0242 ac10 ee03 0242 ac10 ee02 0800 4500  .B.....B......E.
        0x0010:  0034 e1f7 4000 4006 24a4 ac10 ee02 ac10  .4..@.@.$.......
        0x0020:  ee04 0539 d472 1146 97d9 4fde a7ca 8010  ...9.r.F..O.....
        0x0030:  01fe 344f 0000 0101 080a 3213 9b6d 1c2e  ..4O......2..m..
        0x0040:  42e8                                     B.
11:47:29.265482 IP ubuntu_server-in_1.ubuntu_local-net.1337 > ubuntu_client_1.ubuntu_local-net.54386: Flags [.], ack 31, win 510, options [nop,nop,TS val 840145773 ecr 472793832], length 0
        0x0000:  0242 ac10 ee04 0242 ac10 ee03 0800 4500  .B.....B......E.
        0x0010:  0034 e1f7 4000 3f06 25a4 ac10 ee02 ac10  .4..@.?.%.......
        0x0020:  ee04 0539 d472 1146 97d9 4fde a7ca 8010  ...9.r.F..O.....
        0x0030:  01fe 344f 0000 0101 080a 3213 9b6d 1c2e  ..4O......2..m..
        0x0040:  42e8                                     B.
11:47:29.844675 ARP, Reply ubuntu_client_1.ubuntu_local-net is-at 02:42:ac:10:ee:03 (oui Unknown), length 28
        0x0000:  0242 ac10 ee02 0242 ac10 ee03 0806 0001  .B.....B........
        0x0010:  0800 0604 0002 0242 ac10 ee03 ac10 ee04  .......B........
        0x0020:  0242 ac10 ee02 ac10 ee02                 .B........
11:47:30.266613 IP ubuntu_client_1.ubuntu_local-net.54386 > ubuntu_server-in_1.ubuntu_local-net.1337: Flags [P.], seq 31:34, ack 33, win 502, options [nop,nop,TS val 472794833 ecr 840145773], length 3
        0x0000:  0242 ac10 ee03 0242 ac10 ee04 0800 4500  .B.....B......E.
        0x0010:  0037 e6ca 4000 4006 1fce ac10 ee04 ac10  .7..@.@.........
        0x0020:  ee02 d472 0539 4fde a7ca 1146 97d9 8018  ...r.9O....F....
        0x0030:  01f6 3452 0000 0101 080a 1c2e 46d1 3213  ..4R........F.2.
        0x0040:  9b6d 494c 13                             .mIL.
11:47:30.266659 IP ubuntu_client_1.ubuntu_local-net.54386 > ubuntu_server-in_1.ubuntu_local-net.1337: Flags [P.], seq 31:34, ack 33, win 502, options [nop,nop,TS val 472794833 ecr 840145773], length 3
        0x0000:  0242 ac10 ee02 0242 ac10 ee03 0800 4500  .B.....B......E.
        0x0010:  0037 e6ca 4000 3f06 20ce ac10 ee04 ac10  .7..@.?.........
        0x0020:  ee02 d472 0539 4fde a7ca 1146 97d9 8018  ...r.9O....F....
        0x0030:  01f6 3452 0000 0101 080a 1c2e 46d1 3213  ..4R........F.2.
        0x0040:  9b6d 494c 13                             .mIL.
11:47:30.266691 IP ubuntu_server-in_1.ubuntu_local-net.1337 > ubuntu_client_1.ubuntu_local-net.54386: Flags [.], ack 34, win 510, options [nop,nop,TS val 840146774 ecr 472794833], length 0
        0x0000:  0242 ac10 ee03 0242 ac10 ee02 0800 4500  .B.....B......E.
        0x0010:  0034 e1f8 4000 4006 24a3 ac10 ee02 ac10  .4..@.@.$.......
        0x0020:  ee04 0539 d472 1146 97d9 4fde a7cd 8010  ...9.r.F..O.....
        0x0030:  01fe 344f 0000 0101 080a 3213 9f56 1c2e  ..4O......2..V..
        0x0040:  46d1                                     F.
11:47:30.266700 IP ubuntu_server-in_1.ubuntu_local-net.1337 > ubuntu_client_1.ubuntu_local-net.54386: Flags [.], ack 34, win 510, options [nop,nop,TS val 840146774 ecr 472794833], length 0
        0x0000:  0242 ac10 ee04 0242 ac10 ee03 0800 4500  .B.....B......E.
        0x0010:  0034 e1f8 4000 3f06 25a3 ac10 ee02 ac10  .4..@.?.%.......
        0x0020:  ee04 0539 d472 1146 97d9 4fde a7cd 8010  ...9.r.F..O.....
        0x0030:  01fe 344f 0000 0101 080a 3213 9f56 1c2e  ..4O......2..V..
        0x0040:  46d1                                     F.
11:47:31.013547 ARP, Reply ubuntu_server-in_1.ubuntu_local-net is-at 02:42:ac:10:ee:03 (oui Unknown), length 28
        0x0000:  0242 ac10 ee04 0242 ac10 ee03 0806 0001  .B.....B........
        0x0010:  0800 0604 0002 0242 ac10 ee03 ac10 ee02  .......B........
        0x0020:  0242 ac10 ee04 ac10 ee04                 .B........
11:47:31.267886 IP ubuntu_client_1.ubuntu_local-net.54386 > ubuntu_server-in_1.ubuntu_local-net.1337: Flags [P.], seq 34:36, ack 33, win 502, options [nop,nop,TS val 472795834 ecr 840146774], length 2
        0x0000:  0242 ac10 ee03 0242 ac10 ee04 0800 4500  .B.....B......E.
        0x0010:  0036 e6cb 4000 4006 1fce ac10 ee04 ac10  .6..@.@.........
        0x0020:  ee02 d472 0539 4fde a7cd 1146 97d9 8018  ...r.9O....F....
        0x0030:  01f6 3451 0000 0101 080a 1c2e 4aba 3213  ..4Q........J.2.
        0x0040:  9f56 bac2                                .V..
11:47:31.267931 IP ubuntu_client_1.ubuntu_local-net.54386 > ubuntu_server-in_1.ubuntu_local-net.1337: Flags [P.], seq 34:36, ack 33, win 502, options [nop,nop,TS val 472795834 ecr 840146774], length 2
        0x0000:  0242 ac10 ee02 0242 ac10 ee03 0800 4500  .B.....B......E.
        0x0010:  0036 e6cb 4000 3f06 20ce ac10 ee04 ac10  .6..@.?.........
        0x0020:  ee02 d472 0539 4fde a7cd 1146 97d9 8018  ...r.9O....F....
        0x0030:  01f6 3451 0000 0101 080a 1c2e 4aba 3213  ..4Q........J.2.
        0x0040:  9f56 bac2                                .V..
11:47:31.267959 IP ubuntu_server-in_1.ubuntu_local-net.1337 > ubuntu_client_1.ubuntu_local-net.54386: Flags [.], ack 36, win 510, options [nop,nop,TS val 840147775 ecr 472795834], length 0
        0x0000:  0242 ac10 ee03 0242 ac10 ee02 0800 4500  .B.....B......E.
        0x0010:  0034 e1f9 4000 4006 24a2 ac10 ee02 ac10  .4..@.@.$.......
        0x0020:  ee04 0539 d472 1146 97d9 4fde a7cf 8010  ...9.r.F..O.....
        0x0030:  01fe 344f 0000 0101 080a 3213 a33f 1c2e  ..4O......2..?..
        0x0040:  4aba                                     J.
11:47:31.267968 IP ubuntu_server-in_1.ubuntu_local-net.1337 > ubuntu_client_1.ubuntu_local-net.54386: Flags [.], ack 36, win 510, options [nop,nop,TS val 840147775 ecr 472795834], length 0
        0x0000:  0242 ac10 ee04 0242 ac10 ee03 0800 4500  .B.....B......E.
        0x0010:  0034 e1f9 4000 3f06 25a2 ac10 ee02 ac10  .4..@.?.%.......
        0x0020:  ee04 0539 d472 1146 97d9 4fde a7cf 8010  ...9.r.F..O.....
        0x0030:  01fe 344f 0000 0101 080a 3213 a33f 1c2e  ..4O......2..?..
        0x0040:  4aba                                     J.
11:47:31.844873 ARP, Reply ubuntu_client_1.ubuntu_local-net is-at 02:42:ac:10:ee:03 (oui Unknown), length 28
        0x0000:  0242 ac10 ee02 0242 ac10 ee03 0806 0001  .B.....B........
        0x0010:  0800 0604 0002 0242 ac10 ee03 ac10 ee04  .......B........
        0x0020:  0242 ac10 ee02 ac10 ee02                 .B........
11:47:32.269113 IP ubuntu_client_1.ubuntu_local-net.54386 > ubuntu_server-in_1.ubuntu_local-net.1337: Flags [P.], seq 36:50, ack 33, win 502, options [nop,nop,TS val 472796835 ecr 840147775], length 14
        0x0000:  0242 ac10 ee03 0242 ac10 ee04 0800 4500  .B.....B......E.
        0x0010:  0042 e6cc 4000 4006 1fc1 ac10 ee04 ac10  .B..@.@.........
        0x0020:  ee02 d472 0539 4fde a7cf 1146 97d9 8018  ...r.9O....F....
        0x0030:  01f6 345d 0000 0101 080a 1c2e 4ea3 3213  ..4]........N.2.
        0x0040:  a33f 341b 5ebe 22cd 432c 4a79 94d4 bc4a  .?4.^.".C,Jy...J
11:47:32.269161 IP ubuntu_client_1.ubuntu_local-net.54386 > ubuntu_server-in_1.ubuntu_local-net.1337: Flags [P.], seq 36:50, ack 33, win 502, options [nop,nop,TS val 472796835 ecr 840147775], length 14
        0x0000:  0242 ac10 ee02 0242 ac10 ee03 0800 4500  .B.....B......E.
        0x0010:  0042 e6cc 4000 3f06 20c1 ac10 ee04 ac10  .B..@.?.........
        0x0020:  ee02 d472 0539 4fde a7cf 1146 97d9 8018  ...r.9O....F....
        0x0030:  01f6 345d 0000 0101 080a 1c2e 4ea3 3213  ..4]........N.2.
        0x0040:  a33f 341b 5ebe 22cd 432c 4a79 94d4 bc4a  .?4.^.".C,Jy...J
11:47:32.269189 IP ubuntu_server-in_1.ubuntu_local-net.1337 > ubuntu_client_1.ubuntu_local-net.54386: Flags [.], ack 50, win 510, options [nop,nop,TS val 840148776 ecr 472796835], length 0
        0x0000:  0242 ac10 ee03 0242 ac10 ee02 0800 4500  .B.....B......E.
        0x0010:  0034 e1fa 4000 4006 24a1 ac10 ee02 ac10  .4..@.@.$.......
        0x0020:  ee04 0539 d472 1146 97d9 4fde a7dd 8010  ...9.r.F..O.....
        0x0030:  01fe 344f 0000 0101 080a 3213 a728 1c2e  ..4O......2..(..
        0x0040:  4ea3                                     N.
11:47:32.269199 IP ubuntu_server-in_1.ubuntu_local-net.1337 > ubuntu_client_1.ubuntu_local-net.54386: Flags [.], ack 50, win 510, options [nop,nop,TS val 840148776 ecr 472796835], length 0
        0x0000:  0242 ac10 ee04 0242 ac10 ee03 0800 4500  .B.....B......E.
        0x0010:  0034 e1fa 4000 3f06 25a1 ac10 ee02 ac10  .4..@.?.%.......
        0x0020:  ee04 0539 d472 1146 97d9 4fde a7dd 8010  ...9.r.F..O.....
        0x0030:  01fe 344f 0000 0101 080a 3213 a728 1c2e  ..4O......2..(..
        0x0040:  4ea3                                     N.
11:47:33.013744 ARP, Reply ubuntu_server-in_1.ubuntu_local-net is-at 02:42:ac:10:ee:03 (oui Unknown), length 28
        0x0000:  0242 ac10 ee04 0242 ac10 ee03 0806 0001  .B.....B........
        0x0010:  0800 0604 0002 0242 ac10 ee03 ac10 ee02  .......B........
        0x0020:  0242 ac10 ee04 ac10 ee04                 .B........
11:47:33.270319 IP ubuntu_client_1.ubuntu_local-net.54386 > ubuntu_server-in_1.ubuntu_local-net.1337: Flags [P.], seq 50:56, ack 33, win 502, options [nop,nop,TS val 472797836 ecr 840148776], length 6
        0x0000:  0242 ac10 ee03 0242 ac10 ee04 0800 4500  .B.....B......E.
        0x0010:  003a e6cd 4000 4006 1fc8 ac10 ee04 ac10  .:..@.@.........
        0x0020:  ee02 d472 0539 4fde a7dd 1146 97d9 8018  ...r.9O....F....
        0x0030:  01f6 3455 0000 0101 080a 1c2e 528c 3213  ..4U........R.2.
        0x0040:  a728 3e32 17f7 e110                      .(>2....
11:47:33.270364 IP ubuntu_client_1.ubuntu_local-net.54386 > ubuntu_server-in_1.ubuntu_local-net.1337: Flags [P.], seq 50:56, ack 33, win 502, options [nop,nop,TS val 472797836 ecr 840148776], length 6
        0x0000:  0242 ac10 ee02 0242 ac10 ee03 0800 4500  .B.....B......E.
        0x0010:  003a e6cd 4000 3f06 20c8 ac10 ee04 ac10  .:..@.?.........
        0x0020:  ee02 d472 0539 4fde a7dd 1146 97d9 8018  ...r.9O....F....
        0x0030:  01f6 3455 0000 0101 080a 1c2e 528c 3213  ..4U........R.2.
        0x0040:  a728 3e32 17f7 e110                      .(>2....
11:47:33.270392 IP ubuntu_server-in_1.ubuntu_local-net.1337 > ubuntu_client_1.ubuntu_local-net.54386: Flags [.], ack 56, win 510, options [nop,nop,TS val 840149778 ecr 472797836], length 0
        0x0000:  0242 ac10 ee03 0242 ac10 ee02 0800 4500  .B.....B......E.
        0x0010:  0034 e1fb 4000 4006 24a0 ac10 ee02 ac10  .4..@.@.$.......
        0x0020:  ee04 0539 d472 1146 97d9 4fde a7e3 8010  ...9.r.F..O.....
        0x0030:  01fe 344f 0000 0101 080a 3213 ab12 1c2e  ..4O......2.....
        0x0040:  528c                                     R.
11:47:33.270401 IP ubuntu_server-in_1.ubuntu_local-net.1337 > ubuntu_client_1.ubuntu_local-net.54386: Flags [.], ack 56, win 510, options [nop,nop,TS val 840149778 ecr 472797836], length 0
        0x0000:  0242 ac10 ee04 0242 ac10 ee03 0800 4500  .B.....B......E.
        0x0010:  0034 e1fb 4000 3f06 25a0 ac10 ee02 ac10  .4..@.?.%.......
        0x0020:  ee04 0539 d472 1146 97d9 4fde a7e3 8010  ...9.r.F..O.....
        0x0030:  01fe 344f 0000 0101 080a 3213 ab12 1c2e  ..4O......2.....
        0x0040:  528c                                     R.
11:47:33.845162 ARP, Reply ubuntu_client_1.ubuntu_local-net is-at 02:42:ac:10:ee:03 (oui Unknown), length 28
        0x0000:  0242 ac10 ee02 0242 ac10 ee03 0806 0001  .B.....B........
        0x0010:  0800 0604 0002 0242 ac10 ee03 ac10 ee04  .......B........
        0x0020:  0242 ac10 ee02 ac10 ee02                 .B........
11:47:34.271535 IP ubuntu_client_1.ubuntu_local-net.54386 > ubuntu_server-in_1.ubuntu_local-net.1337: Flags [P.], seq 56:63, ack 33, win 502, options [nop,nop,TS val 472798838 ecr 840149778], length 7
        0x0000:  0242 ac10 ee03 0242 ac10 ee04 0800 4500  .B.....B......E.
        0x0010:  003b e6ce 4000 4006 1fc6 ac10 ee04 ac10  .;..@.@.........
        0x0020:  ee02 d472 0539 4fde a7e3 1146 97d9 8018  ...r.9O....F....
        0x0030:  01f6 3456 0000 0101 080a 1c2e 5676 3213  ..4V........Vv2.
        0x0040:  ab12 75ef bf54 557c ed                   ..u..TU|.
11:47:34.271582 IP ubuntu_client_1.ubuntu_local-net.54386 > ubuntu_server-in_1.ubuntu_local-net.1337: Flags [P.], seq 56:63, ack 33, win 502, options [nop,nop,TS val 472798838 ecr 840149778], length 7
        0x0000:  0242 ac10 ee02 0242 ac10 ee03 0800 4500  .B.....B......E.
        0x0010:  003b e6ce 4000 3f06 20c6 ac10 ee04 ac10  .;..@.?.........
        0x0020:  ee02 d472 0539 4fde a7e3 1146 97d9 8018  ...r.9O....F....
        0x0030:  01f6 3456 0000 0101 080a 1c2e 5676 3213  ..4V........Vv2.
        0x0040:  ab12 75ef bf54 557c ed                   ..u..TU|.
11:47:34.271612 IP ubuntu_server-in_1.ubuntu_local-net.1337 > ubuntu_client_1.ubuntu_local-net.54386: Flags [.], ack 63, win 510, options [nop,nop,TS val 840150779 ecr 472798838], length 0
        0x0000:  0242 ac10 ee03 0242 ac10 ee02 0800 4500  .B.....B......E.
        0x0010:  0034 e1fc 4000 4006 249f ac10 ee02 ac10  .4..@.@.$.......
        0x0020:  ee04 0539 d472 1146 97d9 4fde a7ea 8010  ...9.r.F..O.....
        0x0030:  01fe 344f 0000 0101 080a 3213 aefb 1c2e  ..4O......2.....
        0x0040:  5676                                     Vv
11:47:34.271621 IP ubuntu_server-in_1.ubuntu_local-net.1337 > ubuntu_client_1.ubuntu_local-net.54386: Flags [.], ack 63, win 510, options [nop,nop,TS val 840150779 ecr 472798838], length 0
        0x0000:  0242 ac10 ee04 0242 ac10 ee03 0800 4500  .B.....B......E.
        0x0010:  0034 e1fc 4000 3f06 259f ac10 ee02 ac10  .4..@.?.%.......
        0x0020:  ee04 0539 d472 1146 97d9 4fde a7ea 8010  ...9.r.F..O.....
        0x0030:  01fe 344f 0000 0101 080a 3213 aefb 1c2e  ..4O......2.....
        0x0040:  5676                                     Vv
11:47:35.013947 ARP, Reply ubuntu_server-in_1.ubuntu_local-net is-at 02:42:ac:10:ee:03 (oui Unknown), length 28
        0x0000:  0242 ac10 ee04 0242 ac10 ee03 0806 0001  .B.....B........
        0x0010:  0800 0604 0002 0242 ac10 ee03 ac10 ee02  .......B........
        0x0020:  0242 ac10 ee04 ac10 ee04                 .B........
11:47:35.272756 IP ubuntu_client_1.ubuntu_local-net.54386 > ubuntu_server-in_1.ubuntu_local-net.1337: Flags [P.], seq 63:71, ack 33, win 502, options [nop,nop,TS val 472799839 ecr 840150779], length 8
        0x0000:  0242 ac10 ee03 0242 ac10 ee04 0800 4500  .B.....B......E.
        0x0010:  003c e6cf 4000 4006 1fc4 ac10 ee04 ac10  .<..@.@.........
        0x0020:  ee02 d472 0539 4fde a7ea 1146 97d9 8018  ...r.9O....F....
        0x0030:  01f6 3457 0000 0101 080a 1c2e 5a5f 3213  ..4W........Z_2.
        0x0040:  aefb 4bbd 1eeb c033 fc30                 ..K....3.0
11:47:35.272801 IP ubuntu_client_1.ubuntu_local-net.54386 > ubuntu_server-in_1.ubuntu_local-net.1337: Flags [P.], seq 63:71, ack 33, win 502, options [nop,nop,TS val 472799839 ecr 840150779], length 8
        0x0000:  0242 ac10 ee02 0242 ac10 ee03 0800 4500  .B.....B......E.
        0x0010:  003c e6cf 4000 3f06 20c4 ac10 ee04 ac10  .<..@.?.........
        0x0020:  ee02 d472 0539 4fde a7ea 1146 97d9 8018  ...r.9O....F....
        0x0030:  01f6 3457 0000 0101 080a 1c2e 5a5f 3213  ..4W........Z_2.
        0x0040:  aefb 4bbd 1eeb c033 fc30                 ..K....3.0
11:47:35.272828 IP ubuntu_server-in_1.ubuntu_local-net.1337 > ubuntu_client_1.ubuntu_local-net.54386: Flags [.], ack 71, win 510, options [nop,nop,TS val 840151780 ecr 472799839], length 0
        0x0000:  0242 ac10 ee03 0242 ac10 ee02 0800 4500  .B.....B......E.
        0x0010:  0034 e1fd 4000 4006 249e ac10 ee02 ac10  .4..@.@.$.......
        0x0020:  ee04 0539 d472 1146 97d9 4fde a7f2 8010  ...9.r.F..O.....
        0x0030:  01fe 344f 0000 0101 080a 3213 b2e4 1c2e  ..4O......2.....
        0x0040:  5a5f                                     Z_
11:47:35.272837 IP ubuntu_server-in_1.ubuntu_local-net.1337 > ubuntu_client_1.ubuntu_local-net.54386: Flags [.], ack 71, win 510, options [nop,nop,TS val 840151780 ecr 472799839], length 0
        0x0000:  0242 ac10 ee04 0242 ac10 ee03 0800 4500  .B.....B......E.
        0x0010:  0034 e1fd 4000 3f06 259e ac10 ee02 ac10  .4..@.?.%.......
        0x0020:  ee04 0539 d472 1146 97d9 4fde a7f2 8010  ...9.r.F..O.....
        0x0030:  01fe 344f 0000 0101 080a 3213 b2e4 1c2e  ..4O......2.....
        0x0040:  5a5f                                     Z_
11:47:35.845336 ARP, Reply ubuntu_client_1.ubuntu_local-net is-at 02:42:ac:10:ee:03 (oui Unknown), length 28
        0x0000:  0242 ac10 ee02 0242 ac10 ee03 0806 0001  .B.....B........
        0x0010:  0800 0604 0002 0242 ac10 ee03 ac10 ee04  .......B........
        0x0020:  0242 ac10 ee02 ac10 ee02                 .B........
11:47:36.273981 IP ubuntu_client_1.ubuntu_local-net.54386 > ubuntu_server-in_1.ubuntu_local-net.1337: Flags [P.], seq 71:81, ack 33, win 502, options [nop,nop,TS val 472800840 ecr 840151780], length 10
        0x0000:  0242 ac10 ee03 0242 ac10 ee04 0800 4500  .B.....B......E.
        0x0010:  003e e6d0 4000 4006 1fc1 ac10 ee04 ac10  .>..@.@.........
        0x0020:  ee02 d472 0539 4fde a7f2 1146 97d9 8018  ...r.9O....F....
        0x0030:  01f6 3459 0000 0101 080a 1c2e 5e48 3213  ..4Y........^H2.
